{
  "_format": "hh-sol-artifact-1",
  "contractName": "ModelRegistry",
  "sourceName": "contracts/ModelRegistry.sol",
  "abi": [
    {
      "inputs": [],
      "stateMutability": "nonpayable",
      "type": "constructor"
    },
    {
      "inputs": [
        {
          "internalType": "uint8",
          "name": "got",
          "type": "uint8"
        },
        {
          "internalType": "uint8",
          "name": "expected",
          "type": "uint8"
        }
      ],
      "name": "InvalidEncryptedInput",
      "type": "error"
    },
    {
      "anonymous": false,
      "inputs": [
        {
          "indexed": true,
          "internalType": "address",
          "name": "labWallet",
          "type": "address"
        },
        {
          "indexed": false,
          "internalType": "string",
          "name": "profileURI",
          "type": "string"
        }
      ],
      "name": "LabRegistered",
      "type": "event"
    },
    {
      "anonymous": false,
      "inputs": [
        {
          "indexed": true,
          "internalType": "uint256",
          "name": "modelId",
          "type": "uint256"
        }
      ],
      "name": "ModelDeactivated",
      "type": "event"
    },
    {
      "anonymous": false,
      "inputs": [
        {
          "indexed": true,
          "internalType": "uint256",
          "name": "modelId",
          "type": "uint256"
        },
        {
          "indexed": true,
          "internalType": "address",
          "name": "labWallet",
          "type": "address"
        },
        {
          "indexed": false,
          "internalType": "uint256",
          "name": "inferenceFee",
          "type": "uint256"
        }
      ],
      "name": "ModelRegistered",
      "type": "event"
    },
    {
      "anonymous": false,
      "inputs": [
        {
          "indexed": true,
          "internalType": "uint256",
          "name": "modelId",
          "type": "uint256"
        },
        {
          "indexed": false,
          "internalType": "uint256",
          "name": "newPrice",
          "type": "uint256"
        }
      ],
      "name": "PriceUpdated",
      "type": "event"
    },
    {
      "inputs": [
        {
          "internalType": "address",
          "name": "",
          "type": "address"
        }
      ],
      "name": "aiLabs",
      "outputs": [
        {
          "internalType": "string",
          "name": "profileURI",
          "type": "string"
        },
        {
          "internalType": "bool",
          "name": "isRegistered",
          "type": "bool"
        }
      ],
      "stateMutability": "view",
      "type": "function"
    },
    {
      "inputs": [
        {
          "internalType": "uint256",
          "name": "modelId",
          "type": "uint256"
        }
      ],
      "name": "deactivateModel",
      "outputs": [],
      "stateMutability": "nonpayable",
      "type": "function"
    },
    {
      "inputs": [
        {
          "internalType": "uint256",
          "name": "modelId",
          "type": "uint256"
        }
      ],
      "name": "getBiasHandle",
      "outputs": [
        {
          "internalType": "euint32",
          "name": "",
          "type": "bytes32"
        }
      ],
      "stateMutability": "view",
      "type": "function"
    },
    {
      "inputs": [
        {
          "internalType": "uint256",
          "name": "modelId",
          "type": "uint256"
        }
      ],
      "name": "getInferenceFee",
      "outputs": [
        {
          "internalType": "uint256",
          "name": "",
          "type": "uint256"
        }
      ],
      "stateMutability": "view",
      "type": "function"
    },
    {
      "inputs": [
        {
          "internalType": "uint256",
          "name": "modelId",
          "type": "uint256"
        }
      ],
      "name": "getIpfsHash",
      "outputs": [
        {
          "internalType": "string",
          "name": "",
          "type": "string"
        }
      ],
      "stateMutability": "view",
      "type": "function"
    },
    {
      "inputs": [
        {
          "internalType": "uint256",
          "name": "modelId",
          "type": "uint256"
        }
      ],
      "name": "getLabWallet",
      "outputs": [
        {
          "internalType": "address",
          "name": "",
          "type": "address"
        }
      ],
      "stateMutability": "view",
      "type": "function"
    },
    {
      "inputs": [
        {
          "internalType": "uint256",
          "name": "modelId",
          "type": "uint256"
        }
      ],
      "name": "getPrice",
      "outputs": [
        {
          "internalType": "uint256",
          "name": "",
          "type": "uint256"
        }
      ],
      "stateMutability": "view",
      "type": "function"
    },
    {
      "inputs": [
        {
          "internalType": "uint256",
          "name": "modelId",
          "type": "uint256"
        }
      ],
      "name": "getWeightHandles",
      "outputs": [
        {
          "internalType": "euint32[]",
          "name": "",
          "type": "bytes32[]"
        }
      ],
      "stateMutability": "view",
      "type": "function"
    },
    {
      "inputs": [],
      "name": "inferenceEngine",
      "outputs": [
        {
          "internalType": "address",
          "name": "",
          "type": "address"
        }
      ],
      "stateMutability": "view",
      "type": "function"
    },
    {
      "inputs": [],
      "name": "modelCount",
      "outputs": [
        {
          "internalType": "uint256",
          "name": "",
          "type": "uint256"
        }
      ],
      "stateMutability": "view",
      "type": "function"
    },
    {
      "inputs": [
        {
          "internalType": "uint256",
          "name": "",
          "type": "uint256"
        }
      ],
      "name": "models",
      "outputs": [
        {
          "internalType": "uint256",
          "name": "modelId",
          "type": "uint256"
        },
        {
          "internalType": "address",
          "name": "labWallet",
          "type": "address"
        },
        {
          "internalType": "uint256",
          "name": "inferenceFee",
          "type": "uint256"
        },
        {
          "internalType": "string",
          "name": "ipfsHash",
          "type": "string"
        },
        {
          "internalType": "euint32",
          "name": "biasHandle",
          "type": "bytes32"
        },
        {
          "internalType": "bool",
          "name": "active",
          "type": "bool"
        }
      ],
      "stateMutability": "view",
      "type": "function"
    },
    {
      "inputs": [],
      "name": "owner",
      "outputs": [
        {
          "internalType": "address",
          "name": "",
          "type": "address"
        }
      ],
      "stateMutability": "view",
      "type": "function"
    },
    {
      "inputs": [
        {
          "internalType": "string",
          "name": "profileURI",
          "type": "string"
        }
      ],
      "name": "registerLab",
      "outputs": [],
      "stateMutability": "nonpayable",
      "type": "function"
    },
    {
      "inputs": [
        {
          "components": [
            {
              "internalType": "uint256",
              "name": "ctHash",
              "type": "uint256"
            },
            {
              "internalType": "uint8",
              "name": "securityZone",
              "type": "uint8"
            },
            {
              "internalType": "uint8",
              "name": "utype",
              "type": "uint8"
            },
            {
              "internalType": "bytes",
              "name": "signature",
              "type": "bytes"
            }
          ],
          "internalType": "struct InEuint32[]",
          "name": "encryptedWeights",
          "type": "tuple[]"
        },
        {
          "components": [
            {
              "internalType": "uint256",
              "name": "ctHash",
              "type": "uint256"
            },
            {
              "internalType": "uint8",
              "name": "securityZone",
              "type": "uint8"
            },
            {
              "internalType": "uint8",
              "name": "utype",
              "type": "uint8"
            },
            {
              "internalType": "bytes",
              "name": "signature",
              "type": "bytes"
            }
          ],
          "internalType": "struct InEuint32",
          "name": "encryptedBias",
          "type": "tuple"
        },
        {
          "internalType": "uint256",
          "name": "inferenceFee",
          "type": "uint256"
        },
        {
          "internalType": "string",
          "name": "ipfsHash",
          "type": "string"
        }
      ],
      "name": "registerModel",
      "outputs": [
        {
          "internalType": "uint256",
          "name": "",
          "type": "uint256"
        }
      ],
      "stateMutability": "nonpayable",
      "type": "function"
    },
    {
      "inputs": [
        {
          "internalType": "address",
          "name": "engine",
          "type": "address"
        }
      ],
      "name": "setInferenceEngine",
      "outputs": [],
      "stateMutability": "nonpayable",
      "type": "function"
    },
    {
      "inputs": [
        {
          "internalType": "uint256",
          "name": "modelId",
          "type": "uint256"
        },
        {
          "internalType": "uint256",
          "name": "newPrice",
          "type": "uint256"
        }
      ],
      "name": "updatePrice",
      "outputs": [],
      "stateMutability": "nonpayable",
      "type": "function"
    }
  ],
  "bytecode": "0x6080604052348015600e575f5ffd5b50335f5f6101000a81548173ffffffffffffffffffffffffffffffffffffffff021916908373ffffffffffffffffffffffffffffffffffffffff1602179055506123f18061005b5f395ff3fe608060405234801561000f575f5ffd5b50600436106100fd575f3560e01c8063b911cb0911610095578063e757223011610064578063e7572230146102d5578063f190a4e614610305578063f63d510d14610321578063fc171d6014610351576100fd565b8063b911cb0914610227578063bd74011814610257578063c6a645fe14610287578063d450fbc9146102a5576100fd565b80636a030ca9116100d15780636a030ca91461019c57806382367b2d146101d15780638da5cb5b146101ed578063a3ee34211461020b576100fd565b806293bd14146101015780631e10f86b1461011f57806330c09bf01461013b57806339a93bb81461016c575b5f5ffd5b610109610381565b604051610116919061136f565b60405180910390f35b610139600480360381019061013491906113cc565b6103a6565b005b61015560048036038101906101509190611421565b6104a4565b6040516101639291906114d6565b60405180910390f35b610186600480360381019061018191906113cc565b610556565b604051610193919061136f565b60405180910390f35b6101b660048036038101906101b191906113cc565b6105f2565b6040516101c89695949392919061153c565b60405180910390f35b6101eb60048036038101906101e691906115a2565b6106db565b005b6101f56107d3565b604051610202919061136f565b60405180910390f35b61022560048036038101906102209190611421565b6107f7565b005b610241600480360381019061023c91906113cc565b6108c8565b60405161024e91906115e0565b60405180910390f35b610271600480360381019061026c91906113cc565b610945565b60405161027e91906116b0565b60405180910390f35b61028f610a0f565b60405161029c91906116d0565b60405180910390f35b6102bf60048036038101906102ba91906113cc565b610a15565b6040516102cc91906116e9565b60405180910390f35b6102ef60048036038101906102ea91906113cc565b610b19565b6040516102fc91906116d0565b60405180910390f35b61031f600480360381019061031a919061176a565b610b96565b005b61033b600480360381019061033691906113cc565b610cfd565b60405161034891906116d0565b60405180910390f35b61036b6004803603810190610366919061182c565b610d7a565b60405161037891906116d0565b60405180910390f35b60015f9054906101000a900473ffffffffffffffffffffffffffffffffffffffff1681565b8060035f8281526020019081526020015f206001015f9054906101000a900473ffffffffffffffffffffffffffffffffffffffff1673ffffffffffffffffffffffffffffffffffffffff163373ffffffffffffffffffffffffffffffffffffffff1614610448576040517f08c379a000000000000000000000000000000000000000000000000000000000815260040161043f90611935565b60405180910390fd5b5f60035f8481526020019081526020015f206006015f6101000a81548160ff021916908315150217905550817f5e0fd3a7b5bc0190956b3edec5e75f90ff34a06982d80eea61b934eac64d460960405160405180910390a25050565b6002602052805f5260405f205f91509050805f0180546104c390611980565b80601f01602080910402602001604051908101604052809291908181526020018280546104ef90611980565b801561053a5780601f106105115761010080835404028352916020019161053a565b820191905f5260205f20905b81548152906001019060200180831161051d57829003601f168201915b505050505090806001015f9054906101000a900460ff16905082565b5f60035f8381526020019081526020015f206006015f9054906101000a900460ff166105b7576040517f08c379a00000000000000000000000000000000000000000000000000000000081526004016105ae906119fa565b60405180910390fd5b60035f8381526020019081526020015f206001015f9054906101000a900473ffffffffffffffffffffffffffffffffffffffff169050919050565b6003602052805f5260405f205f91509050805f015490806001015f9054906101000a900473ffffffffffffffffffffffffffffffffffffffff169080600201549080600301805461064290611980565b80601f016020809104026020016040519081016040528092919081815260200182805461066e90611980565b80156106b95780601f10610690576101008083540402835291602001916106b9565b820191905f5260205f20905b81548152906001019060200180831161069c57829003601f168201915b505050505090806005015490806006015f9054906101000a900460ff16905086565b8160035f8281526020019081526020015f206001015f9054906101000a900473ffffffffffffffffffffffffffffffffffffffff1673ffffffffffffffffffffffffffffffffffffffff163373ffffffffffffffffffffffffffffffffffffffff161461077d576040517f08c379a000000000000000000000000000000000000000000000000000000000815260040161077490611935565b60405180910390fd5b8160035f8581526020019081526020015f2060020181905550827f945c1c4e99aa89f648fbfe3df471b916f719e16d960fcec0737d4d56bd696838836040516107c691906116d0565b60405180910390a2505050565b5f5f9054906101000a900473ffffffffffffffffffffffffffffffffffffffff1681565b5f5f9054906101000a900473ffffffffffffffffffffffffffffffffffffffff1673ffffffffffffffffffffffffffffffffffffffff163373ffffffffffffffffffffffffffffffffffffffff1614610885576040517f08c379a000000000000000000000000000000000000000000000000000000000815260040161087c90611a62565b60405180910390fd5b8060015f6101000a81548173ffffffffffffffffffffffffffffffffffffffff021916908373ffffffffffffffffffffffffffffffffffffffff16021790555050565b5f60035f8381526020019081526020015f206006015f9054906101000a900460ff16610929576040517f08c379a0000000000000000000000000000000000000000000000000000000008152600401610920906119fa565b60405180910390fd5b60035f8381526020019081526020015f20600501549050919050565b606060035f8381526020019081526020015f206006015f9054906101000a900460ff166109a7576040517f08c379a000000000000000000000000000000000000000000000000000000000815260040161099e906119fa565b60405180910390fd5b60035f8381526020019081526020015f20600401805480602002602001604051908101604052809291908181526020018280548015610a0357602002820191905f5260205f20905b8154815260200190600101908083116109ef575b50505050509050919050565b60045481565b606060035f8381526020019081526020015f206006015f9054906101000a900460ff16610a77576040517f08c379a0000000000000000000000000000000000000000000000000000000008152600401610a6e906119fa565b60405180910390fd5b60035f8381526020019081526020015f206003018054610a9690611980565b80601f0160208091040260200160405190810160405280929190818152602001828054610ac290611980565b8015610b0d5780601f10610ae457610100808354040283529160200191610b0d565b820191905f5260205f20905b815481529060010190602001808311610af057829003601f168201915b50505050509050919050565b5f60035f8381526020019081526020015f206006015f9054906101000a900460ff16610b7a576040517f08c379a0000000000000000000000000000000000000000000000000000000008152600401610b71906119fa565b60405180910390fd5b60035f8381526020019081526020015f20600201549050919050565b5f8282905011610bdb576040517f08c379a0000000000000000000000000000000000000000000000000000000008152600401610bd290611aca565b60405180910390fd5b604051806040016040528083838080601f0160208091040260200160405190810160405280939291908181526020018383808284375f81840152601f19601f8201169050808301925050505050505081526020016001151581525060025f3373ffffffffffffffffffffffffffffffffffffffff1673ffffffffffffffffffffffffffffffffffffffff1681526020019081526020015f205f820151815f019081610c869190611cb5565b506020820151816001015f6101000a81548160ff0219169083151502179055509050503373ffffffffffffffffffffffffffffffffffffffff167fa0ed479abbbd8dfae1b5e58bd31d2299e979763f463ffa6bf3533d9cb8af37688383604051610cf1929190611dbe565b60405180910390a25050565b5f60035f8381526020019081526020015f206006015f9054906101000a900460ff16610d5e576040517f08c379a0000000000000000000000000000000000000000000000000000000008152600401610d55906119fa565b60405180910390fd5b60035f8381526020019081526020015f20600201549050919050565b5f60025f3373ffffffffffffffffffffffffffffffffffffffff1673ffffffffffffffffffffffffffffffffffffffff1681526020019081526020015f206001015f9054906101000a900460ff16610e07576040517f08c379a0000000000000000000000000000000000000000000000000000000008152600401610dfe90611e2a565b60405180910390fd5b5f73ffffffffffffffffffffffffffffffffffffffff1660015f9054906101000a900473ffffffffffffffffffffffffffffffffffffffff1673ffffffffffffffffffffffffffffffffffffffff1603610e96576040517f08c379a0000000000000000000000000000000000000000000000000000000008152600401610e8d90611e92565b60405180910390fd5b60045f815480929190610ea890611edd565b91905055505f60045490505f60035f8381526020019081526020015f20905081815f018190555033816001015f6101000a81548173ffffffffffffffffffffffffffffffffffffffff021916908373ffffffffffffffffffffffffffffffffffffffff1602179055508581600201819055508484826003019182610f2d929190611f2e565b506001816006015f6101000a81548160ff0219169083151502179055505f5f90505b89899050811015610ffd575f610f918b8b84818110610f7157610f70611ffb565b5b9050602002810190610f83919061202c565b610f8c9061220f565b6110af565b9050610f9c816110d7565b610fc78160015f9054906101000a900473ffffffffffffffffffffffffffffffffffffffff16611158565b8260040181908060018154018082558091505060019003905f5260205f20015f9091909190915055508080600101915050610f4f565b505f6110118861100c9061220f565b6110af565b905061101c816110d7565b6110478160015f9054906101000a900473ffffffffffffffffffffffffffffffffffffffff16611158565b8082600501819055503373ffffffffffffffffffffffffffffffffffffffff16837f03b7895e13932559795a6ebf5ed981bd0be96862d5d23481a6ed408d2537ebc18960405161109791906116d0565b60405180910390a38293505050509695505050505050565b5f6110bf826040015160046111da565b6110d06110cb8361122a565b61126c565b9050919050565b73ea30c4b8b44078bbf8a6ef5b9f1ec1626c7848d973ffffffffffffffffffffffffffffffffffffffff166365d0509c825f1c306040518363ffffffff1660e01b8152600401611128929190612221565b5f604051808303815f87803b15801561113f575f5ffd5b505af1158015611151573d5f5f3e3d5ffd5b5050505050565b73ea30c4b8b44078bbf8a6ef5b9f1ec1626c7848d973ffffffffffffffffffffffffffffffffffffffff166365d0509c835f1c836040518363ffffffff1660e01b81526004016111a9929190612221565b5f604051808303815f87803b1580156111c0575f5ffd5b505af11580156111d2573d5f5f3e3d5ffd5b505050505050565b8060ff168260ff16146112265781816040517f67cf307100000000000000000000000000000000000000000000000000000000815260040161121d929190612257565b60405180910390fd5b5050565b611232611305565b6040518060800160405280835f01518152602001836020015160ff168152602001600460ff16815260200183606001518152509050919050565b5f73ea30c4b8b44078bbf8a6ef5b9f1ec1626c7848d973ffffffffffffffffffffffffffffffffffffffff166327f9c76283336040518363ffffffff1660e01b81526004016112bc92919061234e565b6020604051808303815f875af11580156112d8573d5f5f3e3d5ffd5b505050506040513d601f19601f820116820180604052508101906112fc9190612390565b5f1b9050919050565b60405180608001604052805f81526020015f60ff1681526020015f60ff168152602001606081525090565b5f73ffffffffffffffffffffffffffffffffffffffff82169050919050565b5f61135982611330565b9050919050565b6113698161134f565b82525050565b5f6020820190506113825f830184611360565b92915050565b5f604051905090565b5f5ffd5b5f5ffd5b5f819050919050565b6113ab81611399565b81146113b5575f5ffd5b50565b5f813590506113c6816113a2565b92915050565b5f602082840312156113e1576113e0611391565b5b5f6113ee848285016113b8565b91505092915050565b6114008161134f565b811461140a575f5ffd5b50565b5f8135905061141b816113f7565b92915050565b5f6020828403121561143657611435611391565b5b5f6114438482850161140d565b91505092915050565b5f81519050919050565b5f82825260208201905092915050565b8281835e5f83830152505050565b5f601f19601f8301169050919050565b5f61148e8261144c565b6114988185611456565b93506114a8818560208601611466565b6114b181611474565b840191505092915050565b5f8115159050919050565b6114d0816114bc565b82525050565b5f6040820190508181035f8301526114ee8185611484565b90506114fd60208301846114c7565b9392505050565b61150d81611399565b82525050565b5f819050919050565b5f61152682611513565b9050919050565b6115368161151c565b82525050565b5f60c08201905061154f5f830189611504565b61155c6020830188611360565b6115696040830187611504565b818103606083015261157b8186611484565b905061158a608083018561152d565b61159760a08301846114c7565b979650505050505050565b5f5f604083850312156115b8576115b7611391565b5b5f6115c5858286016113b8565b92505060206115d6858286016113b8565b9150509250929050565b5f6020820190506115f35f83018461152d565b92915050565b5f81519050919050565b5f82825260208201905092915050565b5f819050602082019050919050565b61162b8161151c565b82525050565b5f61163c8383611622565b60208301905092915050565b5f602082019050919050565b5f61165e826115f9565b6116688185611603565b935061167383611613565b805f5b838110156116a357815161168a8882611631565b975061169583611648565b925050600181019050611676565b5085935050505092915050565b5f6020820190508181035f8301526116c88184611654565b905092915050565b5f6020820190506116e35f830184611504565b92915050565b5f6020820190508181035f8301526117018184611484565b905092915050565b5f5ffd5b5f5ffd5b5f5ffd5b5f5f83601f84011261172a57611729611709565b5b8235905067ffffffffffffffff8111156117475761174661170d565b5b60208301915083600182028301111561176357611762611711565b5b9250929050565b5f5f602083850312156117805761177f611391565b5b5f83013567ffffffffffffffff81111561179d5761179c611395565b5b6117a985828601611715565b92509250509250929050565b5f5f83601f8401126117ca576117c9611709565b5b8235905067ffffffffffffffff8111156117e7576117e661170d565b5b60208301915083602082028301111561180357611802611711565b5b9250929050565b5f5ffd5b5f608082840312156118235761182261180a565b5b81905092915050565b5f5f5f5f5f5f6080878903121561184657611845611391565b5b5f87013567ffffffffffffffff81111561186357611862611395565b5b61186f89828a016117b5565b9650965050602087013567ffffffffffffffff81111561189257611891611395565b5b61189e89828a0161180e565b94505060406118af89828a016113b8565b935050606087013567ffffffffffffffff8111156118d0576118cf611395565b5b6118dc89828a01611715565b92509250509295509295509295565b7f4e6f7420746865204149206c61620000000000000000000000000000000000005f82015250565b5f61191f600e83611456565b915061192a826118eb565b602082019050919050565b5f6020820190508181035f83015261194c81611913565b9050919050565b7f4e487b71000000000000000000000000000000000000000000000000000000005f52602260045260245ffd5b5f600282049050600182168061199757607f821691505b6020821081036119aa576119a9611953565b5b50919050565b7f4d6f64656c20696e6163746976650000000000000000000000000000000000005f82015250565b5f6119e4600e83611456565b91506119ef826119b0565b602082019050919050565b5f6020820190508181035f830152611a11816119d8565b9050919050565b7f4e6f74207265676973747279206f776e657200000000000000000000000000005f82015250565b5f611a4c601283611456565b9150611a5782611a18565b602082019050919050565b5f6020820190508181035f830152611a7981611a40565b9050919050565b7f50726f66696c65205552492072657175697265640000000000000000000000005f82015250565b5f611ab4601483611456565b9150611abf82611a80565b602082019050919050565b5f6020820190508181035f830152611ae181611aa8565b9050919050565b7f4e487b71000000000000000000000000000000000000000000000000000000005f52604160045260245ffd5b5f819050815f5260205f209050919050565b5f6020601f8301049050919050565b5f82821b905092915050565b5f60088302611b717fffffffffffffffffffffffffffffffffffffffffffffffffffffffffffffffff82611b36565b611b7b8683611b36565b95508019841693508086168417925050509392505050565b5f819050919050565b5f611bb6611bb1611bac84611399565b611b93565b611399565b9050919050565b5f819050919050565b611bcf83611b9c565b611be3611bdb82611bbd565b848454611b42565b825550505050565b5f5f905090565b611bfa611beb565b611c05818484611bc6565b505050565b5b81811015611c2857611c1d5f82611bf2565b600181019050611c0b565b5050565b601f821115611c6d57611c3e81611b15565b611c4784611b27565b81016020851015611c56578190505b611c6a611c6285611b27565b830182611c0a565b50505b505050565b5f82821c905092915050565b5f611c8d5f1984600802611c72565b1980831691505092915050565b5f611ca58383611c7e565b9150826002028217905092915050565b611cbe8261144c565b67ffffffffffffffff811115611cd757611cd6611ae8565b5b611ce18254611980565b611cec828285611c2c565b5f60209050601f831160018114611d1d575f8415611d0b578287015190505b611d158582611c9a565b865550611d7c565b601f198416611d2b86611b15565b5f5b82811015611d5257848901518255600182019150602085019450602081019050611d2d565b86831015611d6f5784890151611d6b601f891682611c7e565b8355505b6001600288020188555050505b505050505050565b828183375f83830152505050565b5f611d9d8385611456565b9350611daa838584611d84565b611db383611474565b840190509392505050565b5f6020820190508181035f830152611dd7818486611d92565b90509392505050565b7f4149206c6162206e6f74207265676973746572656400000000000000000000005f82015250565b5f611e14601583611456565b9150611e1f82611de0565b602082019050919050565b5f6020820190508181035f830152611e4181611e08565b9050919050565b7f496e666572656e636520656e67696e65206e6f74206c696e6b656400000000005f82015250565b5f611e7c601b83611456565b9150611e8782611e48565b602082019050919050565b5f6020820190508181035f830152611ea981611e70565b9050919050565b7f4e487b71000000000000000000000000000000000000000000000000000000005f52601160045260245ffd5b5f611ee782611399565b91507fffffffffffffffffffffffffffffffffffffffffffffffffffffffffffffffff8203611f1957611f18611eb0565b5b600182019050919050565b5f82905092915050565b611f388383611f24565b67ffffffffffffffff811115611f5157611f50611ae8565b5b611f5b8254611980565b611f66828285611c2c565b5f601f831160018114611f93575f8415611f81578287013590505b611f8b8582611c9a565b865550611ff2565b601f198416611fa186611b15565b5f5b82811015611fc857848901358255600182019150602085019450602081019050611fa3565b86831015611fe55784890135611fe1601f891682611c7e565b8355505b6001600288020188555050505b50505050505050565b7f4e487b71000000000000000000000000000000000000000000000000000000005f52603260045260245ffd5b5f5ffd5b5f8235600160800383360303811261204757612046612028565b5b80830191505092915050565b5f5ffd5b61206082611474565b810181811067ffffffffffffffff8211171561207f5761207e611ae8565b5b80604052505050565b5f612091611388565b905061209d8282612057565b919050565b5f5ffd5b5f60ff82169050919050565b6120bb816120a6565b81146120c5575f5ffd5b50565b5f813590506120d6816120b2565b92915050565b5f5ffd5b5f67ffffffffffffffff8211156120fa576120f9611ae8565b5b61210382611474565b9050602081019050919050565b5f61212261211d846120e0565b612088565b90508281526020810184848401111561213e5761213d6120dc565b5b612149848285611d84565b509392505050565b5f82601f83011261216557612164611709565b5b8135612175848260208601612110565b91505092915050565b5f6080828403121561219357612192612053565b5b61219d6080612088565b90505f6121ac848285016113b8565b5f8301525060206121bf848285016120c8565b60208301525060406121d3848285016120c8565b604083015250606082013567ffffffffffffffff8111156121f7576121f66120a2565b5b61220384828501612151565b60608301525092915050565b5f61221a368361217e565b9050919050565b5f6040820190506122345f830185611504565b6122416020830184611360565b9392505050565b612251816120a6565b82525050565b5f60408201905061226a5f830185612248565b6122776020830184612248565b9392505050565b61228781611399565b82525050565b612296816120a6565b82525050565b5f81519050919050565b5f82825260208201905092915050565b5f6122c08261229c565b6122ca81856122a6565b93506122da818560208601611466565b6122e381611474565b840191505092915050565b5f608083015f8301516123035f86018261227e565b506020830151612316602086018261228d565b506040830151612329604086018261228d565b506060830151848203606086015261234182826122b6565b9150508091505092915050565b5f6040820190508181035f83015261236681856122ee565b90506123756020830184611360565b9392505050565b5f8151905061238a816113a2565b92915050565b5f602082840312156123a5576123a4611391565b5b5f6123b28482850161237c565b9150509291505056fea26469706673582212202a3af4e5030fada7f00ed1bf2a8c1831d6e67c45316e2f3816994b4b36441c8764736f6c634300081c0033",
  "linkReferences": {},
  "deployedLinkReferences": {}
}