{
  "_format": "hh-sol-artifact-1",
  "contractName": "InferenceEngine",
  "sourceName": "contracts/InferenceEngine.sol",
  "abi": [
    {
      "inputs": [
        {
          "internalType": "address",
          "name": "registryAddress",
          "type": "address"
        },
        {
          "internalType": "address",
          "name": "escrowAddress",
          "type": "address"
        }
      ],
      "stateMutability": "nonpayable",
      "type": "constructor"
    },
    {
      "anonymous": false,
      "inputs": [
        {
          "indexed": true,
          "internalType": "uint256",
          "name": "requestId",
          "type": "uint256"
        },
        {
          "indexed": true,
          "internalType": "address",
          "name": "requester",
          "type": "address"
        }
      ],
      "name": "InferenceCompleted",
      "type": "event"
    },
    {
      "inputs": [],
      "name": "MAX_WEIGHTS_PER_BLOCK",
      "outputs": [
        {
          "internalType": "uint256",
          "name": "",
          "type": "uint256"
        }
      ],
      "stateMutability": "view",
      "type": "function"
    },
    {
      "inputs": [],
      "name": "escrow",
      "outputs": [
        {
          "internalType": "contract IPaymentEscrow",
          "name": "",
          "type": "address"
        }
      ],
      "stateMutability": "view",
      "type": "function"
    },
    {
      "inputs": [
        {
          "internalType": "uint256",
          "name": "requestId",
          "type": "uint256"
        }
      ],
      "name": "getResult",
      "outputs": [
        {
          "internalType": "euint32",
          "name": "",
          "type": "uint256"
        }
      ],
      "stateMutability": "view",
      "type": "function"
    },
    {
      "inputs": [],
      "name": "owner",
      "outputs": [
        {
          "internalType": "address",
          "name": "",
          "type": "address"
        }
      ],
      "stateMutability": "view",
      "type": "function"
    },
    {
      "inputs": [],
      "name": "registry",
      "outputs": [
        {
          "internalType": "contract IModelRegistry",
          "name": "",
          "type": "address"
        }
      ],
      "stateMutability": "view",
      "type": "function"
    },
    {
      "inputs": [
        {
          "internalType": "uint256",
          "name": "requestId",
          "type": "uint256"
        },
        {
          "components": [
            {
              "internalType": "bytes",
              "name": "data",
              "type": "bytes"
            },
            {
              "internalType": "int32",
              "name": "securityZone",
              "type": "int32"
            }
          ],
          "internalType": "struct inEuint32[]",
          "name": "encryptedInputs",
          "type": "tuple[]"
        }
      ],
      "name": "runInference",
      "outputs": [],
      "stateMutability": "nonpayable",
      "type": "function"
    }
  ],
  "bytecode": "0x60806040523480156200001157600080fd5b5060405162001eaa38038062001eaa833981810160405281019062000037919062000173565b336000806101000a81548173ffffffffffffffffffffffffffffffffffffffff021916908373ffffffffffffffffffffffffffffffffffffffff16021790555081600160006101000a81548173ffffffffffffffffffffffffffffffffffffffff021916908373ffffffffffffffffffffffffffffffffffffffff16021790555080600260006101000a81548173ffffffffffffffffffffffffffffffffffffffff021916908373ffffffffffffffffffffffffffffffffffffffff16021790555060016003819055505050620001ba565b600080fd5b600073ffffffffffffffffffffffffffffffffffffffff82169050919050565b60006200013b826200010e565b9050919050565b6200014d816200012e565b81146200015957600080fd5b50565b6000815190506200016d8162000142565b92915050565b600080604083850312156200018d576200018c62000109565b5b60006200019d858286016200015c565b9250506020620001b0858286016200015c565b9150509250929050565b611ce080620001ca6000396000f3fe608060405234801561001057600080fd5b50600436106100625760003560e01c80637b103999146100675780638da5cb5b146100855780638fce9fb3146100a3578063995e4339146100c1578063d35f4d0a146100f1578063e2fdcc171461010d575b600080fd5b61006f61012b565b60405161007c9190610f46565b60405180910390f35b61008d610151565b60405161009a9190610f82565b60405180910390f35b6100ab610175565b6040516100b89190610fb6565b60405180910390f35b6100db60048036038101906100d69190611011565b61017a565b6040516100e8919061106f565b60405180910390f35b61010b600480360381019061010691906110ef565b610305565b005b61011561036a565b6040516101229190611170565b60405180910390f35b600160009054906101000a900473ffffffffffffffffffffffffffffffffffffffff1681565b60008054906101000a900473ffffffffffffffffffffffffffffffffffffffff1681565b600f81565b600080600260009054906101000a900473ffffffffffffffffffffffffffffffffffffffff1673ffffffffffffffffffffffffffffffffffffffff1663012f52ee846040518263ffffffff1660e01b81526004016101d89190610fb6565b60c060405180830381865afa1580156101f5573d6000803e3d6000fd5b505050506040513d601f19601f820116820180604052508101906102199190611205565b505050505090508073ffffffffffffffffffffffffffffffffffffffff163373ffffffffffffffffffffffffffffffffffffffff161461028e576040517f08c379a000000000000000000000000000000000000000000000000000000000815260040161028590611315565b60405180910390fd5b6102aa6004600085815260200190815260200160002054610390565b6102e9576040517f08c379a00000000000000000000000000000000000000000000000000000000081526004016102e090611381565b60405180910390fd5b6004600084815260200190815260200160002054915050919050565b60026003540361034a576040517f08c379a0000000000000000000000000000000000000000000000000000000008152600401610341906113ed565b60405180910390fd5b600260038190555061035d83838361039d565b6001600381905550505050565b600260009054906101000a900473ffffffffffffffffffffffffffffffffffffffff1681565b6000808214159050919050565b6000806000600260009054906101000a900473ffffffffffffffffffffffffffffffffffffffff1673ffffffffffffffffffffffffffffffffffffffff1663012f52ee876040518263ffffffff1660e01b81526004016103fd9190610fb6565b60c060405180830381865afa15801561041a573d6000803e3d6000fd5b505050506040513d601f19601f8201168201806040525081019061043e9190611205565b5094505050925092508273ffffffffffffffffffffffffffffffffffffffff163373ffffffffffffffffffffffffffffffffffffffff16146104b5576040517f08c379a00000000000000000000000000000000000000000000000000000000081526004016104ac90611459565b60405180910390fd5b60018160ff16146104fb576040517f08c379a00000000000000000000000000000000000000000000000000000000081526004016104f2906114c5565b60405180910390fd5b600260009054906101000a900473ffffffffffffffffffffffffffffffffffffffff1673ffffffffffffffffffffffffffffffffffffffff1663e89ec448876040518263ffffffff1660e01b81526004016105569190610fb6565b600060405180830381600087803b15801561057057600080fd5b505af1158015610584573d6000803e3d6000fd5b505050506000600160009054906101000a900473ffffffffffffffffffffffffffffffffffffffff1673ffffffffffffffffffffffffffffffffffffffff1663bd740118846040518263ffffffff1660e01b81526004016105e59190610fb6565b600060405180830381865afa158015610602573d6000803e3d6000fd5b505050506040513d6000823e3d601f19601f8201168201806040525081019061062b9190611660565b90506000600160009054906101000a900473ffffffffffffffffffffffffffffffffffffffff1673ffffffffffffffffffffffffffffffffffffffff1663b911cb09856040518263ffffffff1660e01b815260040161068a9190610fb6565b602060405180830381865afa1580156106a7573d6000803e3d6000fd5b505050506040513d601f19601f820116820180604052508101906106cb91906116a9565b90506000825111610711576040517f08c379a000000000000000000000000000000000000000000000000000000000815260040161070890611722565b60405180910390fd5b600f82511115610756576040517f08c379a000000000000000000000000000000000000000000000000000000000815260040161074d906117b4565b60405180910390fd5b8686905082511461079c576040517f08c379a000000000000000000000000000000000000000000000000000000000815260040161079390611846565b60405180910390fd5b60006107a8600061096e565b905060005b835181101561082d5760006107ee8a8a848181106107ce576107cd611866565b5b90506020028101906107e0919061189a565b6107e990611a26565b610984565b905061081d836108188388868151811061080b5761080a611866565b5b602002602001015161099f565b610a18565b92505080806001019150506107ad565b506108388183610a18565b90506000610846608061096e565b905060006108548383610a90565b9050600061087582610866600161096e565b610870600061096e565b610b09565b905080600460008e815260200190815260200160002081905550600260009054906101000a900473ffffffffffffffffffffffffffffffffffffffff1673ffffffffffffffffffffffffffffffffffffffff166337bdc99b8d6040518263ffffffff1660e01b81526004016108ea9190610fb6565b600060405180830381600087803b15801561090457600080fd5b505af1158015610918573d6000803e3d6000fd5b505050503373ffffffffffffffffffffffffffffffffffffffff168c7f9a75044dc02b52d82cd403d41728daf22d51454f91edb9449300dab670bb29c660405160405180910390a3505050505050505050505050565b600061097d8260026000610b87565b9050919050565b600061099882600001518360200151610c2c565b9050919050565b60006109aa83610390565b6109bb576109b8600061096e565b92505b6109c482610390565b6109d5576109d2600061096e565b91505b600083905060008390506000610a0a60028484608073ffffffffffffffffffffffffffffffffffffffff16634284f765610c42565b905080935050505092915050565b6000610a2383610390565b610a3457610a31600061096e565b92505b610a3d82610390565b610a4e57610a4b600061096e565b91505b600083905060008390506000610a8260028484608073ffffffffffffffffffffffffffffffffffffffff16622df619610c42565b905080935050505092915050565b6000610a9b83610390565b610aac57610aa9600061096e565b92505b610ab582610390565b610ac657610ac3600061096e565b91505b600083905060008390506000610afb60028484608073ffffffffffffffffffffffffffffffffffffffff1663650de1cf610c42565b905080935050505092915050565b6000610b1484610cd6565b610b2557610b226000610ce3565b93505b610b2e83610390565b610b3f57610b3c600061096e565b92505b610b4882610390565b610b5957610b56600061096e565b91505b6000849050600084905060008490506000610b776002858585610cf9565b9050809450505050509392505050565b60006060608073ffffffffffffffffffffffffffffffffffffffff1663ba19ac28610bb187610db1565b86866040518463ffffffff1660e01b8152600401610bd193929190611ad6565b600060405180830381865afa158015610bee573d6000803e3d6000fd5b505050506040513d6000823e3d601f19601f82011682018060405250810190610c179190611b84565b9050610c2281610e0e565b9150509392505050565b6000610c3a83600284610e1c565b905092915050565b60006060838388610c5289610db1565b610c5b89610db1565b6040518463ffffffff1660e01b8152600401610c7993929190611bcd565b600060405180830381865afa158015610c96573d6000803e3d6000fd5b505050506040513d6000823e3d601f19601f82011682018060405250810190610cbf9190611b84565b9050610cca81610eb9565b91505095945050505050565b6000808214159050919050565b6000610cf282600d6000610b87565b9050919050565b60006060608073ffffffffffffffffffffffffffffffffffffffff1663c2d9695287610d2488610db1565b610d2d88610db1565b610d3688610db1565b6040518563ffffffff1660e01b8152600401610d559493929190611c12565b600060405180830381865afa158015610d72573d6000803e3d6000fd5b505050506040513d6000823e3d601f19601f82011682018060405250810190610d9b9190611b84565b9050610da681610e0e565b915050949350505050565b6060602067ffffffffffffffff811115610dce57610dcd6114f6565b5b6040519080825280601f01601f191660200182016040528015610e005781602001600182028036833780820191505090505b509050816020820152919050565b600060208201519050919050565b60006060608073ffffffffffffffffffffffffffffffffffffffff166321b50ba38587866040518463ffffffff1660e01b8152600401610e5e93929190611c6c565b600060405180830381865afa158015610e7b573d6000803e3d6000fd5b505050506040513d6000823e3d601f19601f82011682018060405250810190610ea49190611b84565b9050610eaf81610e0e565b9150509392505050565b600060208201519050919050565b600073ffffffffffffffffffffffffffffffffffffffff82169050919050565b6000819050919050565b6000610f0c610f07610f0284610ec7565b610ee7565b610ec7565b9050919050565b6000610f1e82610ef1565b9050919050565b6000610f3082610f13565b9050919050565b610f4081610f25565b82525050565b6000602082019050610f5b6000830184610f37565b92915050565b6000610f6c82610ec7565b9050919050565b610f7c81610f61565b82525050565b6000602082019050610f976000830184610f73565b92915050565b6000819050919050565b610fb081610f9d565b82525050565b6000602082019050610fcb6000830184610fa7565b92915050565b6000604051905090565b600080fd5b600080fd5b610fee81610f9d565b8114610ff957600080fd5b50565b60008135905061100b81610fe5565b92915050565b60006020828403121561102757611026610fdb565b5b600061103584828501610ffc565b91505092915050565b600061105961105461104f84610f9d565b610ee7565b610f9d565b9050919050565b6110698161103e565b82525050565b60006020820190506110846000830184611060565b92915050565b600080fd5b600080fd5b600080fd5b60008083601f8401126110af576110ae61108a565b5b8235905067ffffffffffffffff8111156110cc576110cb61108f565b5b6020830191508360208202830111156110e8576110e7611094565b5b9250929050565b60008060006040848603121561110857611107610fdb565b5b600061111686828701610ffc565b935050602084013567ffffffffffffffff81111561113757611136610fe0565b5b61114386828701611099565b92509250509250925092565b600061115a82610f13565b9050919050565b61116a8161114f565b82525050565b60006020820190506111856000830184611161565b92915050565b61119481610f61565b811461119f57600080fd5b50565b6000815190506111b18161118b565b92915050565b6000815190506111c681610fe5565b92915050565b600060ff82169050919050565b6111e2816111cc565b81146111ed57600080fd5b50565b6000815190506111ff816111d9565b92915050565b60008060008060008060c0878903121561122257611221610fdb565b5b600061123089828a016111a2565b965050602061124189828a016111b7565b955050604061125289828a016111b7565b945050606061126389828a016111a2565b935050608061127489828a016111f0565b92505060a061128589828a016111b7565b9150509295509295509295565b600082825260208201905092915050565b7f4e6f7420617574686f72697a656420746f20766965772074686973207265737560008201527f6c74000000000000000000000000000000000000000000000000000000000000602082015250565b60006112ff602283611292565b915061130a826112a3565b604082019050919050565b6000602082019050818103600083015261132e816112f2565b9050919050565b7f526573756c74206e6f74207265616479206f72206661696c6564000000000000600082015250565b600061136b601a83611292565b915061137682611335565b602082019050919050565b6000602082019050818103600083015261139a8161135e565b9050919050565b7f5265656e7472616e637947756172643a207265656e7472616e742063616c6c00600082015250565b60006113d7601f83611292565b91506113e2826113a1565b602082019050919050565b60006020820190508181036000830152611406816113ca565b9050919050565b7f4e6f742074686520617574686f72697a65642072657175657374657200000000600082015250565b6000611443601c83611292565b915061144e8261140d565b602082019050919050565b6000602082019050818103600083015261147281611436565b9050919050565b7f52657175657374206973206e6f742050454e44494e4700000000000000000000600082015250565b60006114af601683611292565b91506114ba82611479565b602082019050919050565b600060208201905081810360008301526114de816114a2565b9050919050565b6000601f19601f8301169050919050565b7f4e487b7100000000000000000000000000000000000000000000000000000000600052604160045260246000fd5b61152e826114e5565b810181811067ffffffffffffffff8211171561154d5761154c6114f6565b5b80604052505050565b6000611560610fd1565b905061156c8282611525565b919050565b600067ffffffffffffffff82111561158c5761158b6114f6565b5b602082029050602081019050919050565b6115a681610f9d565b81146115b157600080fd5b50565b6000815190506115c38161159d565b92915050565b60006115dc6115d784611571565b611556565b905080838252602082019050602084028301858111156115ff576115fe611094565b5b835b81811015611628578061161488826115b4565b845260208401935050602081019050611601565b5050509392505050565b600082601f8301126116475761164661108a565b5b81516116578482602086016115c9565b91505092915050565b60006020828403121561167657611675610fdb565b5b600082015167ffffffffffffffff81111561169457611693610fe0565b5b6116a084828501611632565b91505092915050565b6000602082840312156116bf576116be610fdb565b5b60006116cd848285016115b4565b91505092915050565b7f4d6f64656c20686173206e6f2077656967687473000000000000000000000000600082015250565b600061170c601483611292565b9150611717826116d6565b602082019050919050565b6000602082019050818103600083015261173b816116ff565b9050919050565b7f4d6f64656c20657863656564732046484520626c6f636b20676173206c696d6960008201527f7400000000000000000000000000000000000000000000000000000000000000602082015250565b600061179e602183611292565b91506117a982611742565b604082019050919050565b600060208201905081810360008301526117cd81611791565b9050919050565b7f496e70757420616e64205765696768742064696d656e73696f6e206d69736d6160008201527f7463680000000000000000000000000000000000000000000000000000000000602082015250565b6000611830602383611292565b915061183b826117d4565b604082019050919050565b6000602082019050818103600083015261185f81611823565b9050919050565b7f4e487b7100000000000000000000000000000000000000000000000000000000600052603260045260246000fd5b600080fd5b6000823560016040038336030381126118b6576118b5611895565b5b80830191505092915050565b600080fd5b600080fd5b600080fd5b600067ffffffffffffffff8211156118ec576118eb6114f6565b5b6118f5826114e5565b9050602081019050919050565b82818337600083830152505050565b600061192461191f846118d1565b611556565b9050828152602081018484840111156119405761193f6118cc565b5b61194b848285611902565b509392505050565b600082601f8301126119685761196761108a565b5b8135611978848260208601611911565b91505092915050565b60008160030b9050919050565b61199781611981565b81146119a257600080fd5b50565b6000813590506119b48161198e565b92915050565b6000604082840312156119d0576119cf6118c2565b5b6119da6040611556565b9050600082013567ffffffffffffffff8111156119fa576119f96118c7565b5b611a0684828501611953565b6000830152506020611a1a848285016119a5565b60208301525092915050565b6000611a3236836119ba565b9050919050565b600081519050919050565b600082825260208201905092915050565b60005b83811015611a73578082015181840152602081019050611a58565b60008484015250505050565b6000611a8a82611a39565b611a948185611a44565b9350611aa4818560208601611a55565b611aad816114e5565b840191505092915050565b611ac1816111cc565b82525050565b611ad081611981565b82525050565b60006060820190508181036000830152611af08186611a7f565b9050611aff6020830185611ab8565b611b0c6040830184611ac7565b949350505050565b6000611b27611b22846118d1565b611556565b905082815260208101848484011115611b4357611b426118cc565b5b611b4e848285611a55565b509392505050565b600082601f830112611b6b57611b6a61108a565b5b8151611b7b848260208601611b14565b91505092915050565b600060208284031215611b9a57611b99610fdb565b5b600082015167ffffffffffffffff811115611bb857611bb7610fe0565b5b611bc484828501611b56565b91505092915050565b6000606082019050611be26000830186611ab8565b8181036020830152611bf48185611a7f565b90508181036040830152611c088184611a7f565b9050949350505050565b6000608082019050611c276000830187611ab8565b8181036020830152611c398186611a7f565b90508181036040830152611c4d8185611a7f565b90508181036060830152611c618184611a7f565b905095945050505050565b6000606082019050611c816000830186611ab8565b8181036020830152611c938185611a7f565b9050611ca26040830184611ac7565b94935050505056fea264697066735822122074c720cf4eeb65138a9cb2456930b4b018a9d9d85e971643a5d39be2cea16efe64736f6c63430008180033",
  "linkReferences": {},
  "deployedLinkReferences": {}
}