{
  "_format": "hh-sol-artifact-1",
  "contractName": "ModelRegistry",
  "sourceName": "contracts/ModelRegistry.sol",
  "abi": [
    {
      "inputs": [],
      "stateMutability": "nonpayable",
      "type": "constructor"
    },
    {
      "anonymous": false,
      "inputs": [
        {
          "indexed": true,
          "internalType": "uint256",
          "name": "modelId",
          "type": "uint256"
        }
      ],
      "name": "ModelDeactivated",
      "type": "event"
    },
    {
      "anonymous": false,
      "inputs": [
        {
          "indexed": true,
          "internalType": "uint256",
          "name": "modelId",
          "type": "uint256"
        },
        {
          "indexed": true,
          "internalType": "address",
          "name": "labWallet",
          "type": "address"
        },
        {
          "indexed": false,
          "internalType": "uint256",
          "name": "pricePerQuery",
          "type": "uint256"
        }
      ],
      "name": "ModelRegistered",
      "type": "event"
    },
    {
      "anonymous": false,
      "inputs": [
        {
          "indexed": true,
          "internalType": "uint256",
          "name": "modelId",
          "type": "uint256"
        },
        {
          "indexed": false,
          "internalType": "uint256",
          "name": "newPrice",
          "type": "uint256"
        }
      ],
      "name": "PriceUpdated",
      "type": "event"
    },
    {
      "inputs": [
        {
          "internalType": "uint256",
          "name": "modelId",
          "type": "uint256"
        }
      ],
      "name": "deactivateModel",
      "outputs": [],
      "stateMutability": "nonpayable",
      "type": "function"
    },
    {
      "inputs": [
        {
          "internalType": "uint256",
          "name": "modelId",
          "type": "uint256"
        }
      ],
      "name": "getBiasHandle",
      "outputs": [
        {
          "internalType": "euint32",
          "name": "",
          "type": "uint256"
        }
      ],
      "stateMutability": "view",
      "type": "function"
    },
    {
      "inputs": [
        {
          "internalType": "uint256",
          "name": "modelId",
          "type": "uint256"
        }
      ],
      "name": "getIpfsHash",
      "outputs": [
        {
          "internalType": "string",
          "name": "",
          "type": "string"
        }
      ],
      "stateMutability": "view",
      "type": "function"
    },
    {
      "inputs": [
        {
          "internalType": "uint256",
          "name": "modelId",
          "type": "uint256"
        }
      ],
      "name": "getLabWallet",
      "outputs": [
        {
          "internalType": "address",
          "name": "",
          "type": "address"
        }
      ],
      "stateMutability": "view",
      "type": "function"
    },
    {
      "inputs": [
        {
          "internalType": "uint256",
          "name": "modelId",
          "type": "uint256"
        }
      ],
      "name": "getPrice",
      "outputs": [
        {
          "internalType": "uint256",
          "name": "",
          "type": "uint256"
        }
      ],
      "stateMutability": "view",
      "type": "function"
    },
    {
      "inputs": [
        {
          "internalType": "uint256",
          "name": "modelId",
          "type": "uint256"
        }
      ],
      "name": "getWeightHandles",
      "outputs": [
        {
          "internalType": "euint32[]",
          "name": "",
          "type": "uint256[]"
        }
      ],
      "stateMutability": "view",
      "type": "function"
    },
    {
      "inputs": [],
      "name": "inferenceEngine",
      "outputs": [
        {
          "internalType": "address",
          "name": "",
          "type": "address"
        }
      ],
      "stateMutability": "view",
      "type": "function"
    },
    {
      "inputs": [],
      "name": "modelCount",
      "outputs": [
        {
          "internalType": "uint256",
          "name": "",
          "type": "uint256"
        }
      ],
      "stateMutability": "view",
      "type": "function"
    },
    {
      "inputs": [
        {
          "internalType": "uint256",
          "name": "",
          "type": "uint256"
        }
      ],
      "name": "models",
      "outputs": [
        {
          "internalType": "uint256",
          "name": "modelId",
          "type": "uint256"
        },
        {
          "internalType": "address",
          "name": "labWallet",
          "type": "address"
        },
        {
          "internalType": "uint256",
          "name": "pricePerQuery",
          "type": "uint256"
        },
        {
          "internalType": "string",
          "name": "ipfsHash",
          "type": "string"
        },
        {
          "internalType": "euint32",
          "name": "biasHandle",
          "type": "uint256"
        },
        {
          "internalType": "bool",
          "name": "active",
          "type": "bool"
        }
      ],
      "stateMutability": "view",
      "type": "function"
    },
    {
      "inputs": [],
      "name": "owner",
      "outputs": [
        {
          "internalType": "address",
          "name": "",
          "type": "address"
        }
      ],
      "stateMutability": "view",
      "type": "function"
    },
    {
      "inputs": [
        {
          "components": [
            {
              "internalType": "bytes",
              "name": "data",
              "type": "bytes"
            },
            {
              "internalType": "int32",
              "name": "securityZone",
              "type": "int32"
            }
          ],
          "internalType": "struct inEuint32[]",
          "name": "encryptedWeights",
          "type": "tuple[]"
        },
        {
          "components": [
            {
              "internalType": "bytes",
              "name": "data",
              "type": "bytes"
            },
            {
              "internalType": "int32",
              "name": "securityZone",
              "type": "int32"
            }
          ],
          "internalType": "struct inEuint32",
          "name": "encryptedBias",
          "type": "tuple"
        },
        {
          "internalType": "uint256",
          "name": "pricePerQuery",
          "type": "uint256"
        },
        {
          "internalType": "string",
          "name": "ipfsHash",
          "type": "string"
        }
      ],
      "name": "registerModel",
      "outputs": [
        {
          "internalType": "uint256",
          "name": "",
          "type": "uint256"
        }
      ],
      "stateMutability": "nonpayable",
      "type": "function"
    },
    {
      "inputs": [
        {
          "internalType": "address",
          "name": "engine",
          "type": "address"
        }
      ],
      "name": "setInferenceEngine",
      "outputs": [],
      "stateMutability": "nonpayable",
      "type": "function"
    },
    {
      "inputs": [
        {
          "internalType": "uint256",
          "name": "modelId",
          "type": "uint256"
        },
        {
          "internalType": "uint256",
          "name": "newPrice",
          "type": "uint256"
        }
      ],
      "name": "updatePrice",
      "outputs": [],
      "stateMutability": "nonpayable",
      "type": "function"
    }
  ],
  "bytecode": "0x608060405234801561001057600080fd5b50336000806101000a81548173ffffffffffffffffffffffffffffffffffffffff021916908373ffffffffffffffffffffffffffffffffffffffff160217905550611c1a806100606000396000f3fe608060405234801561001057600080fd5b50600436106100ce5760003560e01c80638da5cb5b1161008c578063bd74011811610066578063bd74011814610228578063c6a645fe14610258578063d450fbc914610276578063e7572230146102a6576100ce565b80638da5cb5b146101be578063a3ee3421146101dc578063b911cb09146101f8576100ce565b806293bd14146100d35780631e10f86b146100f15780632581193f1461010d57806339a93bb81461013d5780636a030ca91461016d57806382367b2d146101a2575b600080fd5b6100db6102d6565b6040516100e89190610ddb565b60405180910390f35b61010b60048036038101906101069190610e40565b6102fc565b005b61012760048036038101906101229190610f4c565b610401565b604051610134919061101e565b60405180910390f35b61015760048036038101906101529190610e40565b61064f565b6040516101649190610ddb565b60405180910390f35b61018760048036038101906101829190610e40565b6106f2565b6040516101999695949392919061111f565b60405180910390f35b6101bc60048036038101906101b79190611187565b6107e3565b005b6101c66108e0565b6040516101d39190610ddb565b60405180910390f35b6101f660048036038101906101f191906111f3565b610904565b005b610212600480360381019061020d9190610e40565b6109d6565b60405161021f9190611220565b60405180910390f35b610242600480360381019061023d9190610e40565b610a59565b60405161024f91906112f9565b60405180910390f35b610260610b2a565b60405161026d919061101e565b60405180910390f35b610290600480360381019061028b9190610e40565b610b30565b60405161029d919061131b565b60405180910390f35b6102c060048036038101906102bb9190610e40565b610c3b565b6040516102cd919061101e565b60405180910390f35b600160009054906101000a900473ffffffffffffffffffffffffffffffffffffffff1681565b806002600082815260200190815260200160002060010160009054906101000a900473ffffffffffffffffffffffffffffffffffffffff1673ffffffffffffffffffffffffffffffffffffffff163373ffffffffffffffffffffffffffffffffffffffff16146103a1576040517f08c379a000000000000000000000000000000000000000000000000000000000815260040161039890611389565b60405180910390fd5b60006002600084815260200190815260200160002060060160006101000a81548160ff021916908315150217905550817f5e0fd3a7b5bc0190956b3edec5e75f90ff34a06982d80eea61b934eac64d460960405160405180910390a25050565b60008073ffffffffffffffffffffffffffffffffffffffff16600160009054906101000a900473ffffffffffffffffffffffffffffffffffffffff1673ffffffffffffffffffffffffffffffffffffffff1603610493576040517f08c379a000000000000000000000000000000000000000000000000000000000815260040161048a906113f5565b60405180910390fd5b600360008154809291906104a690611444565b9190505550600060035490506000600260008381526020019081526020016000209050818160000181905550338160010160006101000a81548173ffffffffffffffffffffffffffffffffffffffff021916908373ffffffffffffffffffffffffffffffffffffffff16021790555085816002018190555084848260030191826105319291906116a6565b5060018160060160006101000a81548160ff02191690831515021790555060005b898990508110156105d05760006105958b8b8481811061057557610574611776565b5b905060200281019061058791906117aa565b61059090611982565b610cbe565b905082600401819080600181540180825580915050600190039060005260206000200160009091909190915055508080600101915050610552565b5060006105e5886105e090611982565b610cbe565b90508082600501819055503373ffffffffffffffffffffffffffffffffffffffff16837f03b7895e13932559795a6ebf5ed981bd0be96862d5d23481a6ed408d2537ebc189604051610637919061101e565b60405180910390a38293505050509695505050505050565b60006002600083815260200190815260200160002060060160009054906101000a900460ff166106b4576040517f08c379a00000000000000000000000000000000000000000000000000000000081526004016106ab906119e1565b60405180910390fd5b6002600083815260200190815260200160002060010160009054906101000a900473ffffffffffffffffffffffffffffffffffffffff169050919050565b60026020528060005260406000206000915090508060000154908060010160009054906101000a900473ffffffffffffffffffffffffffffffffffffffff1690806002015490806003018054610747906114f5565b80601f0160208091040260200160405190810160405280929190818152602001828054610773906114f5565b80156107c05780601f10610795576101008083540402835291602001916107c0565b820191906000526020600020905b8154815290600101906020018083116107a357829003601f168201915b5050505050908060050154908060060160009054906101000a900460ff16905086565b816002600082815260200190815260200160002060010160009054906101000a900473ffffffffffffffffffffffffffffffffffffffff1673ffffffffffffffffffffffffffffffffffffffff163373ffffffffffffffffffffffffffffffffffffffff1614610888576040517f08c379a000000000000000000000000000000000000000000000000000000000815260040161087f90611389565b60405180910390fd5b816002600085815260200190815260200160002060020181905550827f945c1c4e99aa89f648fbfe3df471b916f719e16d960fcec0737d4d56bd696838836040516108d3919061101e565b60405180910390a2505050565b60008054906101000a900473ffffffffffffffffffffffffffffffffffffffff1681565b60008054906101000a900473ffffffffffffffffffffffffffffffffffffffff1673ffffffffffffffffffffffffffffffffffffffff163373ffffffffffffffffffffffffffffffffffffffff1614610992576040517f08c379a000000000000000000000000000000000000000000000000000000000815260040161098990611a4d565b60405180910390fd5b80600160006101000a81548173ffffffffffffffffffffffffffffffffffffffff021916908373ffffffffffffffffffffffffffffffffffffffff16021790555050565b60006002600083815260200190815260200160002060060160009054906101000a900460ff16610a3b576040517f08c379a0000000000000000000000000000000000000000000000000000000008152600401610a32906119e1565b60405180910390fd5b60026000838152602001908152602001600020600501549050919050565b60606002600083815260200190815260200160002060060160009054906101000a900460ff16610abe576040517f08c379a0000000000000000000000000000000000000000000000000000000008152600401610ab5906119e1565b60405180910390fd5b60026000838152602001908152602001600020600401805480602002602001604051908101604052809291908181526020018280548015610b1e57602002820191906000526020600020905b815481526020019060010190808311610b0a575b50505050509050919050565b60035481565b60606002600083815260200190815260200160002060060160009054906101000a900460ff16610b95576040517f08c379a0000000000000000000000000000000000000000000000000000000008152600401610b8c906119e1565b60405180910390fd5b600260008381526020019081526020016000206003018054610bb6906114f5565b80601f0160208091040260200160405190810160405280929190818152602001828054610be2906114f5565b8015610c2f5780601f10610c0457610100808354040283529160200191610c2f565b820191906000526020600020905b815481529060010190602001808311610c1257829003601f168201915b50505050509050919050565b60006002600083815260200190815260200160002060060160009054906101000a900460ff16610ca0576040517f08c379a0000000000000000000000000000000000000000000000000000000008152600401610c97906119e1565b60405180910390fd5b60026000838152602001908152602001600020600201549050919050565b6000610cd282600001518360200151610cd9565b9050919050565b6000610ce783600284610cef565b905092915050565b60006060608073ffffffffffffffffffffffffffffffffffffffff166321b50ba38587866040518463ffffffff1660e01b8152600401610d3193929190611aed565b600060405180830381865afa158015610d4e573d6000803e3d6000fd5b505050506040513d6000823e3d601f19601f82011682018060405250810190610d779190611b9b565b9050610d8281610d8c565b9150509392505050565b600060208201519050919050565b600073ffffffffffffffffffffffffffffffffffffffff82169050919050565b6000610dc582610d9a565b9050919050565b610dd581610dba565b82525050565b6000602082019050610df06000830184610dcc565b92915050565b6000604051905090565b600080fd5b600080fd5b6000819050919050565b610e1d81610e0a565b8114610e2857600080fd5b50565b600081359050610e3a81610e14565b92915050565b600060208284031215610e5657610e55610e00565b5b6000610e6484828501610e2b565b91505092915050565b600080fd5b600080fd5b600080fd5b60008083601f840112610e9257610e91610e6d565b5b8235905067ffffffffffffffff811115610eaf57610eae610e72565b5b602083019150836020820283011115610ecb57610eca610e77565b5b9250929050565b600080fd5b600060408284031215610eed57610eec610ed2565b5b81905092915050565b60008083601f840112610f0c57610f0b610e6d565b5b8235905067ffffffffffffffff811115610f2957610f28610e72565b5b602083019150836001820283011115610f4557610f44610e77565b5b9250929050565b60008060008060008060808789031215610f6957610f68610e00565b5b600087013567ffffffffffffffff811115610f8757610f86610e05565b5b610f9389828a01610e7c565b9650965050602087013567ffffffffffffffff811115610fb657610fb5610e05565b5b610fc289828a01610ed7565b9450506040610fd389828a01610e2b565b935050606087013567ffffffffffffffff811115610ff457610ff3610e05565b5b61100089828a01610ef6565b92509250509295509295509295565b61101881610e0a565b82525050565b6000602082019050611033600083018461100f565b92915050565b600081519050919050565b600082825260208201905092915050565b60005b83811015611073578082015181840152602081019050611058565b60008484015250505050565b6000601f19601f8301169050919050565b600061109b82611039565b6110a58185611044565b93506110b5818560208601611055565b6110be8161107f565b840191505092915050565b6000819050919050565b60006110ee6110e96110e484610e0a565b6110c9565b610e0a565b9050919050565b6110fe816110d3565b82525050565b60008115159050919050565b61111981611104565b82525050565b600060c082019050611134600083018961100f565b6111416020830188610dcc565b61114e604083018761100f565b81810360608301526111608186611090565b905061116f60808301856110f5565b61117c60a0830184611110565b979650505050505050565b6000806040838503121561119e5761119d610e00565b5b60006111ac85828601610e2b565b92505060206111bd85828601610e2b565b9150509250929050565b6111d081610dba565b81146111db57600080fd5b50565b6000813590506111ed816111c7565b92915050565b60006020828403121561120957611208610e00565b5b6000611217848285016111de565b91505092915050565b600060208201905061123560008301846110f5565b92915050565b600081519050919050565b600082825260208201905092915050565b6000819050602082019050919050565b611270816110d3565b82525050565b60006112828383611267565b60208301905092915050565b6000602082019050919050565b60006112a68261123b565b6112b08185611246565b93506112bb83611257565b8060005b838110156112ec5781516112d38882611276565b97506112de8361128e565b9250506001810190506112bf565b5085935050505092915050565b60006020820190508181036000830152611313818461129b565b905092915050565b600060208201905081810360008301526113358184611090565b905092915050565b7f4e6f7420746865204149206c6162000000000000000000000000000000000000600082015250565b6000611373600e83611044565b915061137e8261133d565b602082019050919050565b600060208201905081810360008301526113a281611366565b9050919050565b7f496e666572656e636520656e67696e65206e6f74206c696e6b65640000000000600082015250565b60006113df601b83611044565b91506113ea826113a9565b602082019050919050565b6000602082019050818103600083015261140e816113d2565b9050919050565b7f4e487b7100000000000000000000000000000000000000000000000000000000600052601160045260246000fd5b600061144f82610e0a565b91507fffffffffffffffffffffffffffffffffffffffffffffffffffffffffffffffff820361148157611480611415565b5b600182019050919050565b600082905092915050565b7f4e487b7100000000000000000000000000000000000000000000000000000000600052604160045260246000fd5b7f4e487b7100000000000000000000000000000000000000000000000000000000600052602260045260246000fd5b6000600282049050600182168061150d57607f821691505b6020821081036115205761151f6114c6565b5b50919050565b60008190508160005260206000209050919050565b60006020601f8301049050919050565b600082821b905092915050565b6000600883026115887fffffffffffffffffffffffffffffffffffffffffffffffffffffffffffffffff8261154b565b611592868361154b565b95508019841693508086168417925050509392505050565b6000819050919050565b6115bd836110d3565b6115d16115c9826115aa565b848454611558565b825550505050565b600090565b6115e66115d9565b6115f18184846115b4565b505050565b5b818110156116155761160a6000826115de565b6001810190506115f7565b5050565b601f82111561165a5761162b81611526565b6116348461153b565b81016020851015611643578190505b61165761164f8561153b565b8301826115f6565b50505b505050565b600082821c905092915050565b600061167d6000198460080261165f565b1980831691505092915050565b6000611696838361166c565b9150826002028217905092915050565b6116b0838361148c565b67ffffffffffffffff8111156116c9576116c8611497565b5b6116d382546114f5565b6116de828285611619565b6000601f83116001811461170d57600084156116fb578287013590505b611705858261168a565b86555061176d565b601f19841661171b86611526565b60005b828110156117435784890135825560018201915060208501945060208101905061171e565b86831015611760578489013561175c601f89168261166c565b8355505b6001600288020188555050505b50505050505050565b7f4e487b7100000000000000000000000000000000000000000000000000000000600052603260045260246000fd5b600080fd5b6000823560016040038336030381126117c6576117c56117a5565b5b80830191505092915050565b600080fd5b6117e08261107f565b810181811067ffffffffffffffff821117156117ff576117fe611497565b5b80604052505050565b6000611812610df6565b905061181e82826117d7565b919050565b600080fd5b600080fd5b600067ffffffffffffffff82111561184857611847611497565b5b6118518261107f565b9050602081019050919050565b82818337600083830152505050565b600061188061187b8461182d565b611808565b90508281526020810184848401111561189c5761189b611828565b5b6118a784828561185e565b509392505050565b600082601f8301126118c4576118c3610e6d565b5b81356118d484826020860161186d565b91505092915050565b60008160030b9050919050565b6118f3816118dd565b81146118fe57600080fd5b50565b600081359050611910816118ea565b92915050565b60006040828403121561192c5761192b6117d2565b5b6119366040611808565b9050600082013567ffffffffffffffff81111561195657611955611823565b5b611962848285016118af565b600083015250602061197684828501611901565b60208301525092915050565b600061198e3683611916565b9050919050565b7f4d6f64656c20696e616374697665000000000000000000000000000000000000600082015250565b60006119cb600e83611044565b91506119d682611995565b602082019050919050565b600060208201905081810360008301526119fa816119be565b9050919050565b7f4e6f74207265676973747279206f776e65720000000000000000000000000000600082015250565b6000611a37601283611044565b9150611a4282611a01565b602082019050919050565b60006020820190508181036000830152611a6681611a2a565b9050919050565b600060ff82169050919050565b611a8381611a6d565b82525050565b600081519050919050565b600082825260208201905092915050565b6000611ab082611a89565b611aba8185611a94565b9350611aca818560208601611055565b611ad38161107f565b840191505092915050565b611ae7816118dd565b82525050565b6000606082019050611b026000830186611a7a565b8181036020830152611b148185611aa5565b9050611b236040830184611ade565b949350505050565b6000611b3e611b398461182d565b611808565b905082815260208101848484011115611b5a57611b59611828565b5b611b65848285611055565b509392505050565b600082601f830112611b8257611b81610e6d565b5b8151611b92848260208601611b2b565b91505092915050565b600060208284031215611bb157611bb0610e00565b5b600082015167ffffffffffffffff811115611bcf57611bce610e05565b5b611bdb84828501611b6d565b9150509291505056fea264697066735822122016345ae0ebcff7ac9c57bc523c58fba6c0804e266a8a56923fabb89344910e0b64736f6c63430008180033",
  "linkReferences": {},
  "deployedLinkReferences": {}
}