{
  "_format": "hh-sol-artifact-1",
  "contractName": "PaymentEscrow",
  "sourceName": "contracts/PaymentEscrow.sol",
  "abi": [
    {
      "inputs": [
        {
          "internalType": "address",
          "name": "paymentTokenAddress",
          "type": "address"
        },
        {
          "internalType": "address",
          "name": "registryAddress",
          "type": "address"
        },
        {
          "internalType": "address",
          "name": "treasury",
          "type": "address"
        }
      ],
      "stateMutability": "nonpayable",
      "type": "constructor"
    },
    {
      "anonymous": false,
      "inputs": [
        {
          "indexed": true,
          "internalType": "uint256",
          "name": "requestId",
          "type": "uint256"
        },
        {
          "indexed": true,
          "internalType": "address",
          "name": "requester",
          "type": "address"
        },
        {
          "indexed": true,
          "internalType": "uint256",
          "name": "modelId",
          "type": "uint256"
        },
        {
          "indexed": false,
          "internalType": "uint256",
          "name": "amount",
          "type": "uint256"
        }
      ],
      "name": "FeeLocked",
      "type": "event"
    },
    {
      "anonymous": false,
      "inputs": [
        {
          "indexed": true,
          "internalType": "uint256",
          "name": "requestId",
          "type": "uint256"
        },
        {
          "indexed": true,
          "internalType": "address",
          "name": "requester",
          "type": "address"
        },
        {
          "indexed": false,
          "internalType": "uint256",
          "name": "amount",
          "type": "uint256"
        }
      ],
      "name": "FeeRefunded",
      "type": "event"
    },
    {
      "anonymous": false,
      "inputs": [
        {
          "indexed": true,
          "internalType": "uint256",
          "name": "requestId",
          "type": "uint256"
        },
        {
          "indexed": true,
          "internalType": "address",
          "name": "labWallet",
          "type": "address"
        },
        {
          "indexed": false,
          "internalType": "uint256",
          "name": "labAmount",
          "type": "uint256"
        },
        {
          "indexed": false,
          "internalType": "uint256",
          "name": "protocolAmount",
          "type": "uint256"
        }
      ],
      "name": "FeeReleased",
      "type": "event"
    },
    {
      "anonymous": false,
      "inputs": [
        {
          "indexed": true,
          "internalType": "uint256",
          "name": "requestId",
          "type": "uint256"
        }
      ],
      "name": "ProcessingStarted",
      "type": "event"
    },
    {
      "inputs": [],
      "name": "TIMEOUT_DURATION",
      "outputs": [
        {
          "internalType": "uint256",
          "name": "",
          "type": "uint256"
        }
      ],
      "stateMutability": "view",
      "type": "function"
    },
    {
      "inputs": [
        {
          "internalType": "uint256",
          "name": "",
          "type": "uint256"
        }
      ],
      "name": "escrows",
      "outputs": [
        {
          "internalType": "address",
          "name": "requester",
          "type": "address"
        },
        {
          "internalType": "uint256",
          "name": "modelId",
          "type": "uint256"
        },
        {
          "internalType": "uint256",
          "name": "amount",
          "type": "uint256"
        },
        {
          "internalType": "address",
          "name": "labWallet",
          "type": "address"
        },
        {
          "internalType": "enum PaymentEscrow.RequestStatus",
          "name": "status",
          "type": "uint8"
        },
        {
          "internalType": "uint256",
          "name": "timestamp",
          "type": "uint256"
        }
      ],
      "stateMutability": "view",
      "type": "function"
    },
    {
      "inputs": [],
      "name": "feeTreasury",
      "outputs": [
        {
          "internalType": "address",
          "name": "",
          "type": "address"
        }
      ],
      "stateMutability": "view",
      "type": "function"
    },
    {
      "inputs": [
        {
          "internalType": "uint256",
          "name": "requestId",
          "type": "uint256"
        }
      ],
      "name": "forceRefund",
      "outputs": [],
      "stateMutability": "nonpayable",
      "type": "function"
    },
    {
      "inputs": [
        {
          "internalType": "uint256",
          "name": "requestId",
          "type": "uint256"
        }
      ],
      "name": "getRequestStatus",
      "outputs": [
        {
          "internalType": "enum PaymentEscrow.RequestStatus",
          "name": "",
          "type": "uint8"
        }
      ],
      "stateMutability": "view",
      "type": "function"
    },
    {
      "inputs": [],
      "name": "inferenceEngine",
      "outputs": [
        {
          "internalType": "address",
          "name": "",
          "type": "address"
        }
      ],
      "stateMutability": "view",
      "type": "function"
    },
    {
      "inputs": [
        {
          "internalType": "uint256",
          "name": "modelId",
          "type": "uint256"
        }
      ],
      "name": "lockFee",
      "outputs": [
        {
          "internalType": "uint256",
          "name": "",
          "type": "uint256"
        }
      ],
      "stateMutability": "nonpayable",
      "type": "function"
    },
    {
      "inputs": [
        {
          "internalType": "uint256",
          "name": "requestId",
          "type": "uint256"
        }
      ],
      "name": "markProcessing",
      "outputs": [],
      "stateMutability": "nonpayable",
      "type": "function"
    },
    {
      "inputs": [],
      "name": "owner",
      "outputs": [
        {
          "internalType": "address",
          "name": "",
          "type": "address"
        }
      ],
      "stateMutability": "view",
      "type": "function"
    },
    {
      "inputs": [],
      "name": "paymentToken",
      "outputs": [
        {
          "internalType": "contract IERC20",
          "name": "",
          "type": "address"
        }
      ],
      "stateMutability": "view",
      "type": "function"
    },
    {
      "inputs": [],
      "name": "protocolFeeBps",
      "outputs": [
        {
          "internalType": "uint256",
          "name": "",
          "type": "uint256"
        }
      ],
      "stateMutability": "view",
      "type": "function"
    },
    {
      "inputs": [
        {
          "internalType": "uint256",
          "name": "requestId",
          "type": "uint256"
        }
      ],
      "name": "refund",
      "outputs": [],
      "stateMutability": "nonpayable",
      "type": "function"
    },
    {
      "inputs": [],
      "name": "registry",
      "outputs": [
        {
          "internalType": "contract IModelRegistryForEscrow",
          "name": "",
          "type": "address"
        }
      ],
      "stateMutability": "view",
      "type": "function"
    },
    {
      "inputs": [
        {
          "internalType": "uint256",
          "name": "requestId",
          "type": "uint256"
        }
      ],
      "name": "release",
      "outputs": [],
      "stateMutability": "nonpayable",
      "type": "function"
    },
    {
      "inputs": [],
      "name": "requestCount",
      "outputs": [
        {
          "internalType": "uint256",
          "name": "",
          "type": "uint256"
        }
      ],
      "stateMutability": "view",
      "type": "function"
    },
    {
      "inputs": [
        {
          "internalType": "address",
          "name": "engine",
          "type": "address"
        }
      ],
      "name": "setInferenceEngine",
      "outputs": [],
      "stateMutability": "nonpayable",
      "type": "function"
    },
    {
      "inputs": [
        {
          "internalType": "uint256",
          "name": "bps",
          "type": "uint256"
        }
      ],
      "name": "setProtocolFee",
      "outputs": [],
      "stateMutability": "nonpayable",
      "type": "function"
    }
  ],
  "bytecode": "0x608060405260fa6005553480156200001657600080fd5b50604051620026c3380380620026c383398181016040528101906200003c9190620001ba565b336000806101000a81548173ffffffffffffffffffffffffffffffffffffffff021916908373ffffffffffffffffffffffffffffffffffffffff16021790555080600260006101000a81548173ffffffffffffffffffffffffffffffffffffffff021916908373ffffffffffffffffffffffffffffffffffffffff16021790555082600360006101000a81548173ffffffffffffffffffffffffffffffffffffffff021916908373ffffffffffffffffffffffffffffffffffffffff16021790555081600460006101000a81548173ffffffffffffffffffffffffffffffffffffffff021916908373ffffffffffffffffffffffffffffffffffffffff160217905550600160088190555050505062000216565b600080fd5b600073ffffffffffffffffffffffffffffffffffffffff82169050919050565b6000620001828262000155565b9050919050565b620001948162000175565b8114620001a057600080fd5b50565b600081519050620001b48162000189565b92915050565b600080600060608486031215620001d657620001d562000150565b5b6000620001e686828701620001a3565b9350506020620001f986828701620001a3565b92505060406200020c86828701620001a3565b9150509250925092565b61249d80620002266000396000f3fe608060405234801561001057600080fd5b506004361061010a5760003560e01c80635badbe4c116100a25780638da5cb5b116100715780638da5cb5b14610298578063a3ee3421146102b6578063d8a4676f146102d2578063e89ec44814610302578063eaf7ac9f1461031e5761010a565b80635badbe4c1461022257806360dc234014610240578063787dce3d1461025e5780637b1039991461027a5761010a565b80633013ce29116100de5780633013ce291461019a57806335659fb8146101b857806337bdc99b146101d6578063493c8ac4146101f25761010a565b806293bd141461010f578063012f52ee1461012d57806305f8d94c14610162578063278ecde11461017e575b600080fd5b61011761033c565b60405161012491906117b0565b60405180910390f35b61014760048036038101906101429190611806565b610362565b604051610159969594939291906118b9565b60405180910390f35b61017c60048036038101906101779190611806565b6103eb565b005b61019860048036038101906101939190611806565b61072a565b005b6101a2610a15565b6040516101af9190611979565b60405180910390f35b6101c0610a3b565b6040516101cd9190611994565b60405180910390f35b6101f060048036038101906101eb9190611806565b610a41565b005b61020c60048036038101906102079190611806565b610f33565b6040516102199190611994565b60405180910390f35b61022a61138d565b6040516102379190611994565b60405180910390f35b610248611393565b60405161025591906117b0565b60405180910390f35b61027860048036038101906102739190611806565b6113b9565b005b610282611496565b60405161028f91906119d0565b60405180910390f35b6102a06114bc565b6040516102ad91906117b0565b60405180910390f35b6102d060048036038101906102cb9190611a17565b6114e0565b005b6102ec60048036038101906102e79190611806565b6115b2565b6040516102f99190611a44565b60405180910390f35b61031c60048036038101906103179190611806565b6115df565b005b610326611768565b6040516103339190611994565b60405180910390f35b600160009054906101000a900473ffffffffffffffffffffffffffffffffffffffff1681565b60076020528060005260406000206000915090508060000160009054906101000a900473ffffffffffffffffffffffffffffffffffffffff16908060010154908060020154908060030160009054906101000a900473ffffffffffffffffffffffffffffffffffffffff16908060030160149054906101000a900460ff16908060040154905086565b600260085403610430576040517f08c379a000000000000000000000000000000000000000000000000000000000815260040161042790611abc565b60405180910390fd5b600260088190555060006007600083815260200190815260200160002090503373ffffffffffffffffffffffffffffffffffffffff168160000160009054906101000a900473ffffffffffffffffffffffffffffffffffffffff1673ffffffffffffffffffffffffffffffffffffffff16146104e1576040517f08c379a00000000000000000000000000000000000000000000000000000000081526004016104d890611b28565b60405180910390fd5b600260048111156104f5576104f4611842565b5b8160030160149054906101000a900460ff16600481111561051957610518611842565b5b14610559576040517f08c379a000000000000000000000000000000000000000000000000000000000815260040161055090611b94565b60405180910390fd5b62015180816004015461056c9190611be3565b42116105ad576040517f08c379a00000000000000000000000000000000000000000000000000000000081526004016105a490611c63565b60405180910390fd5b60048160030160146101000a81548160ff021916908360048111156105d5576105d4611842565b5b02179055506000816002015411156106cb57600360009054906101000a900473ffffffffffffffffffffffffffffffffffffffff1673ffffffffffffffffffffffffffffffffffffffff1663a9059cbb3383600201546040518363ffffffff1660e01b8152600401610648929190611c83565b6020604051808303816000875af1158015610667573d6000803e3d6000fd5b505050506040513d601f19601f8201168201806040525081019061068b9190611ce4565b6106ca576040517f08c379a00000000000000000000000000000000000000000000000000000000081526004016106c190611d5d565b60405180910390fd5b5b3373ffffffffffffffffffffffffffffffffffffffff16827fd0a0d80667b5ed3ace8c9ff96305d7bde34ddaac3c5e0d62bf5f1e17b78dbf0e83600201546040516107169190611994565b60405180910390a350600160088190555050565b60026008540361076f576040517f08c379a000000000000000000000000000000000000000000000000000000000815260040161076690611abc565b60405180910390fd5b600260088190555060006007600083815260200190815260200160002090503373ffffffffffffffffffffffffffffffffffffffff168160000160009054906101000a900473ffffffffffffffffffffffffffffffffffffffff1673ffffffffffffffffffffffffffffffffffffffff1614610820576040517f08c379a000000000000000000000000000000000000000000000000000000000815260040161081790611b28565b60405180910390fd5b6001600481111561083457610833611842565b5b8160030160149054906101000a900460ff16600481111561085857610857611842565b5b14610898576040517f08c379a000000000000000000000000000000000000000000000000000000000815260040161088f90611def565b60405180910390fd5b60048160030160146101000a81548160ff021916908360048111156108c0576108bf611842565b5b02179055506000816002015411156109b657600360009054906101000a900473ffffffffffffffffffffffffffffffffffffffff1673ffffffffffffffffffffffffffffffffffffffff1663a9059cbb3383600201546040518363ffffffff1660e01b8152600401610933929190611c83565b6020604051808303816000875af1158015610952573d6000803e3d6000fd5b505050506040513d601f19601f820116820180604052508101906109769190611ce4565b6109b5576040517f08c379a00000000000000000000000000000000000000000000000000000000081526004016109ac90611e5b565b60405180910390fd5b5b3373ffffffffffffffffffffffffffffffffffffffff16827fd0a0d80667b5ed3ace8c9ff96305d7bde34ddaac3c5e0d62bf5f1e17b78dbf0e8360020154604051610a019190611994565b60405180910390a350600160088190555050565b600360009054906101000a900473ffffffffffffffffffffffffffffffffffffffff1681565b60055481565b600160009054906101000a900473ffffffffffffffffffffffffffffffffffffffff1673ffffffffffffffffffffffffffffffffffffffff163373ffffffffffffffffffffffffffffffffffffffff1614610ad1576040517f08c379a0000000000000000000000000000000000000000000000000000000008152600401610ac890611ec7565b60405180910390fd5b600260085403610b16576040517f08c379a0000000000000000000000000000000000000000000000000000000008152600401610b0d90611abc565b60405180910390fd5b6002600881905550600060076000838152602001908152602001600020905060026004811115610b4957610b48611842565b5b8160030160149054906101000a900460ff166004811115610b6d57610b6c611842565b5b14610bad576040517f08c379a0000000000000000000000000000000000000000000000000000000008152600401610ba490611f33565b60405180910390fd5b60038160030160146101000a81548160ff02191690836004811115610bd557610bd4611842565b5b02179055506000816002015490506000811115610eaf57600061271060055483610bff9190611f53565b610c099190611fc4565b905060008183610c199190611ff5565b90506000821115610d2657600360009054906101000a900473ffffffffffffffffffffffffffffffffffffffff1673ffffffffffffffffffffffffffffffffffffffff1663a9059cbb600260009054906101000a900473ffffffffffffffffffffffffffffffffffffffff16846040518363ffffffff1660e01b8152600401610ca3929190611c83565b6020604051808303816000875af1158015610cc2573d6000803e3d6000fd5b505050506040513d601f19601f82011682018060405250810190610ce69190611ce4565b610d25576040517f08c379a0000000000000000000000000000000000000000000000000000000008152600401610d1c90612075565b60405180910390fd5b5b6000811115610e3357600360009054906101000a900473ffffffffffffffffffffffffffffffffffffffff1673ffffffffffffffffffffffffffffffffffffffff1663a9059cbb8560030160009054906101000a900473ffffffffffffffffffffffffffffffffffffffff16836040518363ffffffff1660e01b8152600401610db0929190611c83565b6020604051808303816000875af1158015610dcf573d6000803e3d6000fd5b505050506040513d601f19601f82011682018060405250810190610df39190611ce4565b610e32576040517f08c379a0000000000000000000000000000000000000000000000000000000008152600401610e29906120e1565b60405180910390fd5b5b8360030160009054906101000a900473ffffffffffffffffffffffffffffffffffffffff1673ffffffffffffffffffffffffffffffffffffffff16857f7fa6259da351299dedaa57e3d04b083e99afe9ea2edffd0a7eb7509718f35eae8385604051610ea0929190612101565b60405180910390a35050610f26565b8160030160009054906101000a900473ffffffffffffffffffffffffffffffffffffffff1673ffffffffffffffffffffffffffffffffffffffff16837f7fa6259da351299dedaa57e3d04b083e99afe9ea2edffd0a7eb7509718f35eae600080604051610f1d929190612165565b60405180910390a35b5050600160088190555050565b6000600260085403610f7a576040517f08c379a0000000000000000000000000000000000000000000000000000000008152600401610f7190611abc565b60405180910390fd5b60026008819055506000600460009054906101000a900473ffffffffffffffffffffffffffffffffffffffff1673ffffffffffffffffffffffffffffffffffffffff1663e7572230846040518263ffffffff1660e01b8152600401610fdf9190611994565b602060405180830381865afa158015610ffc573d6000803e3d6000fd5b505050506040513d601f19601f8201168201806040525081019061102091906121a3565b90506000600460009054906101000a900473ffffffffffffffffffffffffffffffffffffffff1673ffffffffffffffffffffffffffffffffffffffff166339a93bb8856040518263ffffffff1660e01b815260040161107f9190611994565b602060405180830381865afa15801561109c573d6000803e3d6000fd5b505050506040513d601f19601f820116820180604052508101906110c091906121e5565b9050600660008154809291906110d590612212565b9190505550600060065490506040518060c001604052803373ffffffffffffffffffffffffffffffffffffffff1681526020018681526020018481526020018373ffffffffffffffffffffffffffffffffffffffff1681526020016001600481111561114457611143611842565b5b8152602001428152506007600083815260200190815260200160002060008201518160000160006101000a81548173ffffffffffffffffffffffffffffffffffffffff021916908373ffffffffffffffffffffffffffffffffffffffff160217905550602082015181600101556040820151816002015560608201518160030160006101000a81548173ffffffffffffffffffffffffffffffffffffffff021916908373ffffffffffffffffffffffffffffffffffffffff16021790555060808201518160030160146101000a81548160ff0219169083600481111561122d5761122c611842565b5b021790555060a08201518160040155905050600083111561132a57600360009054906101000a900473ffffffffffffffffffffffffffffffffffffffff1673ffffffffffffffffffffffffffffffffffffffff166323b872dd3330866040518463ffffffff1660e01b81526004016112a79392919061225a565b6020604051808303816000875af11580156112c6573d6000803e3d6000fd5b505050506040513d601f19601f820116820180604052508101906112ea9190611ce4565b611329576040517f08c379a000000000000000000000000000000000000000000000000000000000815260040161132090612303565b60405180910390fd5b5b843373ffffffffffffffffffffffffffffffffffffffff16827f22ea719e0db743d53a6d68955990153a80d7d6c97b9112728637bd29b2dcf763866040516113729190611994565b60405180910390a48093505050506001600881905550919050565b60065481565b600260009054906101000a900473ffffffffffffffffffffffffffffffffffffffff1681565b60008054906101000a900473ffffffffffffffffffffffffffffffffffffffff1673ffffffffffffffffffffffffffffffffffffffff163373ffffffffffffffffffffffffffffffffffffffff1614611447576040517f08c379a000000000000000000000000000000000000000000000000000000000815260040161143e9061236f565b60405180910390fd5b6103e881111561148c576040517f08c379a0000000000000000000000000000000000000000000000000000000008152600401611483906123db565b60405180910390fd5b8060058190555050565b600460009054906101000a900473ffffffffffffffffffffffffffffffffffffffff1681565b60008054906101000a900473ffffffffffffffffffffffffffffffffffffffff1681565b60008054906101000a900473ffffffffffffffffffffffffffffffffffffffff1673ffffffffffffffffffffffffffffffffffffffff163373ffffffffffffffffffffffffffffffffffffffff161461156e576040517f08c379a00000000000000000000000000000000000000000000000000000000081526004016115659061236f565b60405180910390fd5b80600160006101000a81548173ffffffffffffffffffffffffffffffffffffffff021916908373ffffffffffffffffffffffffffffffffffffffff16021790555050565b60006007600083815260200190815260200160002060030160149054906101000a900460ff169050919050565b600160009054906101000a900473ffffffffffffffffffffffffffffffffffffffff1673ffffffffffffffffffffffffffffffffffffffff163373ffffffffffffffffffffffffffffffffffffffff161461166f576040517f08c379a000000000000000000000000000000000000000000000000000000000815260040161166690611ec7565b60405180910390fd5b6001600481111561168357611682611842565b5b6007600083815260200190815260200160002060030160149054906101000a900460ff1660048111156116b9576116b8611842565b5b146116f9576040517f08c379a00000000000000000000000000000000000000000000000000000000081526004016116f090612447565b60405180910390fd5b60026007600083815260200190815260200160002060030160146101000a81548160ff0219169083600481111561173357611732611842565b5b0217905550807f75a8523867c48ca7db28d86f271a6a404d3af97cbc92076bab2107dcb0a1bfd960405160405180910390a250565b6201518081565b600073ffffffffffffffffffffffffffffffffffffffff82169050919050565b600061179a8261176f565b9050919050565b6117aa8161178f565b82525050565b60006020820190506117c560008301846117a1565b92915050565b600080fd5b6000819050919050565b6117e3816117d0565b81146117ee57600080fd5b50565b600081359050611800816117da565b92915050565b60006020828403121561181c5761181b6117cb565b5b600061182a848285016117f1565b91505092915050565b61183c816117d0565b82525050565b7f4e487b7100000000000000000000000000000000000000000000000000000000600052602160045260246000fd5b6005811061188257611881611842565b5b50565b600081905061189382611871565b919050565b60006118a382611885565b9050919050565b6118b381611898565b82525050565b600060c0820190506118ce60008301896117a1565b6118db6020830188611833565b6118e86040830187611833565b6118f560608301866117a1565b61190260808301856118aa565b61190f60a0830184611833565b979650505050505050565b6000819050919050565b600061193f61193a6119358461176f565b61191a565b61176f565b9050919050565b600061195182611924565b9050919050565b600061196382611946565b9050919050565b61197381611958565b82525050565b600060208201905061198e600083018461196a565b92915050565b60006020820190506119a96000830184611833565b92915050565b60006119ba82611946565b9050919050565b6119ca816119af565b82525050565b60006020820190506119e560008301846119c1565b92915050565b6119f48161178f565b81146119ff57600080fd5b50565b600081359050611a11816119eb565b92915050565b600060208284031215611a2d57611a2c6117cb565b5b6000611a3b84828501611a02565b91505092915050565b6000602082019050611a5960008301846118aa565b92915050565b600082825260208201905092915050565b7f5265656e7472616e637947756172643a207265656e7472616e742063616c6c00600082015250565b6000611aa6601f83611a5f565b9150611ab182611a70565b602082019050919050565b60006020820190508181036000830152611ad581611a99565b9050919050565b7f4e6f7420796f7572207265717565737400000000000000000000000000000000600082015250565b6000611b12601083611a5f565b9150611b1d82611adc565b602082019050919050565b60006020820190508181036000830152611b4181611b05565b9050919050565b7f4e6f742050524f43455353494e47000000000000000000000000000000000000600082015250565b6000611b7e600e83611a5f565b9150611b8982611b48565b602082019050919050565b60006020820190508181036000830152611bad81611b71565b9050919050565b7f4e487b7100000000000000000000000000000000000000000000000000000000600052601160045260246000fd5b6000611bee826117d0565b9150611bf9836117d0565b9250828201905080821115611c1157611c10611bb4565b5b92915050565b7f54696d656f757420706572696f64206e6f742072656163686564000000000000600082015250565b6000611c4d601a83611a5f565b9150611c5882611c17565b602082019050919050565b60006020820190508181036000830152611c7c81611c40565b9050919050565b6000604082019050611c9860008301856117a1565b611ca56020830184611833565b9392505050565b60008115159050919050565b611cc181611cac565b8114611ccc57600080fd5b50565b600081519050611cde81611cb8565b92915050565b600060208284031215611cfa57611cf96117cb565b5b6000611d0884828501611ccf565b91505092915050565b7f466f72636520726566756e64206661696c656400000000000000000000000000600082015250565b6000611d47601383611a5f565b9150611d5282611d11565b602082019050919050565b60006020820190508181036000830152611d7681611d3a565b9050919050565b7f43616e6e6f7420726566756e643a2050726f63657373696e672073746172746560008201527f6400000000000000000000000000000000000000000000000000000000000000602082015250565b6000611dd9602183611a5f565b9150611de482611d7d565b604082019050919050565b60006020820190508181036000830152611e0881611dcc565b9050919050565b7f526566756e64207472616e73666572206661696c656400000000000000000000600082015250565b6000611e45601683611a5f565b9150611e5082611e0f565b602082019050919050565b60006020820190508181036000830152611e7481611e38565b9050919050565b7f4f6e6c7920496e666572656e6365456e67696e65000000000000000000000000600082015250565b6000611eb1601483611a5f565b9150611ebc82611e7b565b602082019050919050565b60006020820190508181036000830152611ee081611ea4565b9050919050565b7f52657175657374206e6f742050524f43455353494e4700000000000000000000600082015250565b6000611f1d601683611a5f565b9150611f2882611ee7565b602082019050919050565b60006020820190508181036000830152611f4c81611f10565b9050919050565b6000611f5e826117d0565b9150611f69836117d0565b9250828202611f77816117d0565b91508282048414831517611f8e57611f8d611bb4565b5b5092915050565b7f4e487b7100000000000000000000000000000000000000000000000000000000600052601260045260246000fd5b6000611fcf826117d0565b9150611fda836117d0565b925082611fea57611fe9611f95565b5b828204905092915050565b6000612000826117d0565b915061200b836117d0565b925082820390508181111561202357612022611bb4565b5b92915050565b7f50726f746f636f6c20666565207472616e73666572206661696c656400000000600082015250565b600061205f601c83611a5f565b915061206a82612029565b602082019050919050565b6000602082019050818103600083015261208e81612052565b9050919050565b7f4c616220666565207472616e73666572206661696c6564000000000000000000600082015250565b60006120cb601783611a5f565b91506120d682612095565b602082019050919050565b600060208201905081810360008301526120fa816120be565b9050919050565b60006040820190506121166000830185611833565b6121236020830184611833565b9392505050565b6000819050919050565b600061214f61214a6121458461212a565b61191a565b6117d0565b9050919050565b61215f81612134565b82525050565b600060408201905061217a6000830185612156565b6121876020830184612156565b9392505050565b60008151905061219d816117da565b92915050565b6000602082840312156121b9576121b86117cb565b5b60006121c78482850161218e565b91505092915050565b6000815190506121df816119eb565b92915050565b6000602082840312156121fb576121fa6117cb565b5b6000612209848285016121d0565b91505092915050565b600061221d826117d0565b91507fffffffffffffffffffffffffffffffffffffffffffffffffffffffffffffffff820361224f5761224e611bb4565b5b600182019050919050565b600060608201905061226f60008301866117a1565b61227c60208301856117a1565b6122896040830184611833565b949350505050565b7f546f6b656e207472616e73666572206661696c65642e20436865636b20616c6c60008201527f6f77616e63652e00000000000000000000000000000000000000000000000000602082015250565b60006122ed602783611a5f565b91506122f882612291565b604082019050919050565b6000602082019050818103600083015261231c816122e0565b9050919050565b7f4e6f74206f776e65720000000000000000000000000000000000000000000000600082015250565b6000612359600983611a5f565b915061236482612323565b602082019050919050565b600060208201905081810360008301526123888161234c565b9050919050565b7f4665652063616e6e6f7420657863656564203130250000000000000000000000600082015250565b60006123c5601583611a5f565b91506123d08261238f565b602082019050919050565b600060208201905081810360008301526123f4816123b8565b9050919050565b7f52657175657374206e6f742050454e44494e4700000000000000000000000000600082015250565b6000612431601383611a5f565b915061243c826123fb565b602082019050919050565b6000602082019050818103600083015261246081612424565b905091905056fea264697066735822122075107e304b22853641f476f6cd4a312a075f972c0c869e19f392488cee18483a64736f6c63430008180033",
  "linkReferences": {},
  "deployedLinkReferences": {}
}