{
  "_format": "hh-sol-artifact-1",
  "contractName": "BlindInference",
  "sourceName": "contracts/BlindInference.sol",
  "abi": [
    {
      "inputs": [
        {
          "internalType": "address",
          "name": "registryAddress",
          "type": "address"
        },
        {
          "internalType": "address",
          "name": "escrowAddress",
          "type": "address"
        },
        {
          "internalType": "address",
          "name": "tokenAddress",
          "type": "address"
        }
      ],
      "stateMutability": "nonpayable",
      "type": "constructor"
    },
    {
      "inputs": [
        {
          "internalType": "uint8",
          "name": "got",
          "type": "uint8"
        },
        {
          "internalType": "uint8",
          "name": "expected",
          "type": "uint8"
        }
      ],
      "name": "InvalidEncryptedInput",
      "type": "error"
    },
    {
      "inputs": [
        {
          "internalType": "int32",
          "name": "value",
          "type": "int32"
        }
      ],
      "name": "SecurityZoneOutOfBounds",
      "type": "error"
    },
    {
      "anonymous": false,
      "inputs": [
        {
          "indexed": true,
          "internalType": "uint256",
          "name": "requestId",
          "type": "uint256"
        },
        {
          "indexed": true,
          "internalType": "address",
          "name": "requester",
          "type": "address"
        }
      ],
      "name": "InferenceCompleted",
      "type": "event"
    },
    {
      "anonymous": false,
      "inputs": [
        {
          "indexed": true,
          "internalType": "uint256",
          "name": "requestId",
          "type": "uint256"
        },
        {
          "indexed": true,
          "internalType": "address",
          "name": "requester",
          "type": "address"
        },
        {
          "indexed": true,
          "internalType": "uint256",
          "name": "modelId",
          "type": "uint256"
        }
      ],
      "name": "PredictionRequested",
      "type": "event"
    },
    {
      "inputs": [],
      "name": "MAX_WEIGHTS_PER_BLOCK",
      "outputs": [
        {
          "internalType": "uint256",
          "name": "",
          "type": "uint256"
        }
      ],
      "stateMutability": "view",
      "type": "function"
    },
    {
      "inputs": [],
      "name": "escrow",
      "outputs": [
        {
          "internalType": "contract IPaymentEscrow",
          "name": "",
          "type": "address"
        }
      ],
      "stateMutability": "view",
      "type": "function"
    },
    {
      "inputs": [
        {
          "internalType": "uint256",
          "name": "requestId",
          "type": "uint256"
        }
      ],
      "name": "getResult",
      "outputs": [
        {
          "internalType": "euint32",
          "name": "",
          "type": "bytes32"
        }
      ],
      "stateMutability": "view",
      "type": "function"
    },
    {
      "inputs": [],
      "name": "owner",
      "outputs": [
        {
          "internalType": "address",
          "name": "",
          "type": "address"
        }
      ],
      "stateMutability": "view",
      "type": "function"
    },
    {
      "inputs": [],
      "name": "paymentToken",
      "outputs": [
        {
          "internalType": "contract IERC20",
          "name": "",
          "type": "address"
        }
      ],
      "stateMutability": "view",
      "type": "function"
    },
    {
      "inputs": [
        {
          "internalType": "uint256",
          "name": "modelId",
          "type": "uint256"
        },
        {
          "components": [
            {
              "internalType": "uint256",
              "name": "ctHash",
              "type": "uint256"
            },
            {
              "internalType": "uint8",
              "name": "securityZone",
              "type": "uint8"
            },
            {
              "internalType": "uint8",
              "name": "utype",
              "type": "uint8"
            },
            {
              "internalType": "bytes",
              "name": "signature",
              "type": "bytes"
            }
          ],
          "internalType": "struct InEuint32[]",
          "name": "encryptedInputs",
          "type": "tuple[]"
        }
      ],
      "name": "predict",
      "outputs": [
        {
          "internalType": "uint256",
          "name": "",
          "type": "uint256"
        }
      ],
      "stateMutability": "nonpayable",
      "type": "function"
    },
    {
      "inputs": [],
      "name": "registry",
      "outputs": [
        {
          "internalType": "contract IModelRegistry",
          "name": "",
          "type": "address"
        }
      ],
      "stateMutability": "view",
      "type": "function"
    }
  ],
  "bytecode": "0x608060405234801561000f575f5ffd5b5060405161232b38038061232b833981810160405281019061003191906101a4565b828282335f5f6101000a81548173ffffffffffffffffffffffffffffffffffffffff021916908373ffffffffffffffffffffffffffffffffffffffff1602179055508260015f6101000a81548173ffffffffffffffffffffffffffffffffffffffff021916908373ffffffffffffffffffffffffffffffffffffffff1602179055508160025f6101000a81548173ffffffffffffffffffffffffffffffffffffffff021916908373ffffffffffffffffffffffffffffffffffffffff1602179055508060035f6101000a81548173ffffffffffffffffffffffffffffffffffffffff021916908373ffffffffffffffffffffffffffffffffffffffff16021790555060016004819055505050505050506101f4565b5f5ffd5b5f73ffffffffffffffffffffffffffffffffffffffff82169050919050565b5f6101738261014a565b9050919050565b61018381610169565b811461018d575f5ffd5b50565b5f8151905061019e8161017a565b92915050565b5f5f5f606084860312156101bb576101ba610146565b5b5f6101c886828701610190565b93505060206101d986828701610190565b92505060406101ea86828701610190565b9150509250925092565b61212a806102015f395ff3fe608060405234801561000f575f5ffd5b506004361061007b575f3560e01c80638da5cb5b116100595780638da5cb5b146100eb5780638fce9fb314610109578063995e433914610127578063e2fdcc17146101575761007b565b80633013ce291461007f578063305050811461009d5780637b103999146100cd575b5f5ffd5b610087610175565b60405161009491906112a2565b60405180910390f35b6100b760048036038101906100b29190611360565b61019a565b6040516100c491906113cc565b60405180910390f35b6100d56101f9565b6040516100e29190611405565b60405180910390f35b6100f361021e565b604051610100919061143e565b60405180910390f35b610111610242565b60405161011e91906113cc565b60405180910390f35b610141600480360381019061013c9190611457565b610247565b60405161014e91906114ab565b60405180910390f35b61015f6103ca565b60405161016c91906114e4565b60405180910390f35b60035f9054906101000a900473ffffffffffffffffffffffffffffffffffffffff1681565b5f5f6101a78585856103ef565b9050843373ffffffffffffffffffffffffffffffffffffffff16827f34f53e5a52b04b5a716d2b5309ea1dce9d84dd3de6846d214f89491c8411c85460405160405180910390a4809150509392505050565b60015f9054906101000a900473ffffffffffffffffffffffffffffffffffffffff1681565b5f5f9054906101000a900473ffffffffffffffffffffffffffffffffffffffff1681565b600f81565b5f5f60025f9054906101000a900473ffffffffffffffffffffffffffffffffffffffff1673ffffffffffffffffffffffffffffffffffffffff1663012f52ee846040518263ffffffff1660e01b81526004016102a391906113cc565b60c060405180830381865afa1580156102be573d5f5f3e3d5ffd5b505050506040513d601f19601f820116820180604052508101906102e29190611571565b505050505090508073ffffffffffffffffffffffffffffffffffffffff163373ffffffffffffffffffffffffffffffffffffffff1614610357576040517f08c379a000000000000000000000000000000000000000000000000000000000815260040161034e9061167a565b60405180910390fd5b61037160055f8581526020019081526020015f2054610869565b6103b0576040517f08c379a00000000000000000000000000000000000000000000000000000000081526004016103a7906116e2565b60405180910390fd5b60055f8481526020019081526020015f2054915050919050565b60025f9054906101000a900473ffffffffffffffffffffffffffffffffffffffff1681565b5f5f60015f9054906101000a900473ffffffffffffffffffffffffffffffffffffffff1673ffffffffffffffffffffffffffffffffffffffff1663f63d510d866040518263ffffffff1660e01b815260040161044b91906113cc565b602060405180830381865afa158015610466573d5f5f3e3d5ffd5b505050506040513d601f19601f8201168201806040525081019061048a9190611700565b90505f60015f9054906101000a900473ffffffffffffffffffffffffffffffffffffffff1673ffffffffffffffffffffffffffffffffffffffff166339a93bb8876040518263ffffffff1660e01b81526004016104e791906113cc565b602060405180830381865afa158015610502573d5f5f3e3d5ffd5b505050506040513d601f19601f82011682018060405250810190610526919061172b565b90505f82111561062f5760035f9054906101000a900473ffffffffffffffffffffffffffffffffffffffff1673ffffffffffffffffffffffffffffffffffffffff166323b872dd3360025f9054906101000a900473ffffffffffffffffffffffffffffffffffffffff16856040518463ffffffff1660e01b81526004016105af93929190611756565b6020604051808303815f875af11580156105cb573d5f5f3e3d5ffd5b505050506040513d601f19601f820116820180604052508101906105ef91906117c0565b61062e576040517f08c379a00000000000000000000000000000000000000000000000000000000081526004016106259061185b565b60405180910390fd5b5b5f60025f9054906101000a900473ffffffffffffffffffffffffffffffffffffffff1673ffffffffffffffffffffffffffffffffffffffff1663816eba6b338986866040518563ffffffff1660e01b81526004016106909493929190611879565b6020604051808303815f875af11580156106ac573d5f5f3e3d5ffd5b505050506040513d601f19601f820116820180604052508101906106d09190611700565b905060025f9054906101000a900473ffffffffffffffffffffffffffffffffffffffff1673ffffffffffffffffffffffffffffffffffffffff1663e89ec448826040518263ffffffff1660e01b815260040161072c91906113cc565b5f604051808303815f87803b158015610743575f5ffd5b505af1158015610755573d5f5f3e3d5ffd5b505050505f61076588888861087a565b905061077081610b2b565b61077a8133610bac565b8060055f8481526020019081526020015f208190555060025f9054906101000a900473ffffffffffffffffffffffffffffffffffffffff1673ffffffffffffffffffffffffffffffffffffffff166337bdc99b836040518263ffffffff1660e01b81526004016107ea91906113cc565b5f604051808303815f87803b158015610801575f5ffd5b505af1158015610813573d5f5f3e3d5ffd5b505050503373ffffffffffffffffffffffffffffffffffffffff16827f9a75044dc02b52d82cd403d41728daf22d51454f91edb9449300dab670bb29c660405160405180910390a3819450505050509392505050565b5f61087382610c2e565b9050919050565b5f5f60015f9054906101000a900473ffffffffffffffffffffffffffffffffffffffff1673ffffffffffffffffffffffffffffffffffffffff1663bd740118866040518263ffffffff1660e01b81526004016108d691906113cc565b5f60405180830381865afa1580156108f0573d5f5f3e3d5ffd5b505050506040513d5f823e3d601f19601f820116820180604052508101906109189190611a2e565b90505f60015f9054906101000a900473ffffffffffffffffffffffffffffffffffffffff1673ffffffffffffffffffffffffffffffffffffffff1663b911cb09876040518263ffffffff1660e01b815260040161097591906113cc565b602060405180830381865afa158015610990573d5f5f3e3d5ffd5b505050506040513d601f19601f820116820180604052508101906109b49190611a75565b90505f8251116109f9576040517f08c379a00000000000000000000000000000000000000000000000000000000081526004016109f090611aea565b60405180910390fd5b600f82511115610a3e576040517f08c379a0000000000000000000000000000000000000000000000000000000008152600401610a3590611b78565b60405180910390fd5b84849050825114610a84576040517f08c379a0000000000000000000000000000000000000000000000000000000008152600401610a7b90611c06565b60405180910390fd5b5f610a8e5f610c3f565b90505f5f90505b8351811015610b14575f610ad5888884818110610ab557610ab4611c24565b5b9050602002810190610ac79190611c55565b610ad090611dd9565b610c51565b9050610b0483610aff83888681518110610af257610af1611c24565b5b6020026020010151610c79565b610cc2565b9250508080600101915050610a95565b50610b1f8183610cc2565b93505050509392505050565b73ea30c4b8b44078bbf8a6ef5b9f1ec1626c7848d973ffffffffffffffffffffffffffffffffffffffff166365d0509c825f1c306040518363ffffffff1660e01b8152600401610b7c929190611deb565b5f604051808303815f87803b158015610b93575f5ffd5b505af1158015610ba5573d5f5f3e3d5ffd5b5050505050565b73ea30c4b8b44078bbf8a6ef5b9f1ec1626c7848d973ffffffffffffffffffffffffffffffffffffffff166365d0509c835f1c836040518363ffffffff1660e01b8152600401610bfd929190611deb565b5f604051808303815f87803b158015610c14575f5ffd5b505af1158015610c26573d5f5f3e3d5ffd5b505050505050565b5f610c3882610d0b565b9050919050565b5f610c4a825f610d19565b9050919050565b5f610c6182604001516004610d33565b610c72610c6d83610d83565b610dc5565b9050919050565b5f610c8383610c2e565b610c9357610c905f610c3f565b92505b610c9c82610c2e565b610cac57610ca95f610c3f565b91505b610cba60048484600f610e5e565b905092915050565b5f610ccc83610c2e565b610cdc57610cd95f610c3f565b92505b610ce582610c2e565b610cf557610cf25f610c3f565b91505b610d03600484846008610e5e565b905092915050565b5f5f5f1b8214159050919050565b5f5f610d2784600485610f4f565b90508091505092915050565b8060ff168260ff1614610d7f5781816040517f67cf3071000000000000000000000000000000000000000000000000000000008152600401610d76929190611e21565b60405180910390fd5b5050565b610d8b6111fd565b6040518060800160405280835f01518152602001836020015160ff168152602001600460ff16815260200183606001518152509050919050565b5f73ea30c4b8b44078bbf8a6ef5b9f1ec1626c7848d973ffffffffffffffffffffffffffffffffffffffff166327f9c76283336040518363ffffffff1660e01b8152600401610e15929190611f26565b6020604051808303815f875af1158015610e31573d5f5f3e3d5ffd5b505050506040513d601f19601f82011682018060405250810190610e559190611700565b5f1b9050919050565b5f73ea30c4b8b44078bbf8a6ef5b9f1ec1626c7848d973ffffffffffffffffffffffffffffffffffffffff16631888debd8684610e9b888861104c565b5f67ffffffffffffffff811115610eb557610eb46118cc565b5b604051908082528060200260200182016040528015610ee35781602001602082028036833780820191505090505b506040518563ffffffff1660e01b8152600401610f03949392919061206f565b6020604051808303815f875af1158015610f1f573d5f5f3e3d5ffd5b505050506040513d601f19601f82011682018060405250810190610f439190611700565b5f1b9050949350505050565b5f73ea30c4b8b44078bbf8a6ef5b9f1ec1626c7848d973ffffffffffffffffffffffffffffffffffffffff16631888debd84601a5f67ffffffffffffffff811115610f9d57610f9c6118cc565b5b604051908082528060200260200182016040528015610fcb5781602001602082028036833780820191505090505b50610fe2898960ff16610fdd8a6110ea565b611141565b6040518563ffffffff1660e01b8152600401611001949392919061206f565b6020604051808303815f875af115801561101d573d5f5f3e3d5ffd5b505050506040513d601f19601f820116820180604052508101906110419190611700565b5f1b90509392505050565b60605f600267ffffffffffffffff81111561106a576110696118cc565b5b6040519080825280602002602001820160405280156110985781602001602082028036833780820191505090505b509050835f1c815f815181106110b1576110b0611c24565b5b602002602001018181525050825f1c816001815181106110d4576110d3611c24565b5b6020026020010181815250508091505092915050565b5f5f8260030b121561113357816040517f8f568bf800000000000000000000000000000000000000000000000000000000815260040161112a91906120db565b60405180910390fd5b8163ffffffff169050919050565b60605f600367ffffffffffffffff81111561115f5761115e6118cc565b5b60405190808252806020026020018201604052801561118d5781602001602082028036833780820191505090505b50905084815f815181106111a4576111a3611c24565b5b60200260200101818152505083816001815181106111c5576111c4611c24565b5b60200260200101818152505082816002815181106111e6576111e5611c24565b5b602002602001018181525050809150509392505050565b60405180608001604052805f81526020015f60ff1681526020015f60ff168152602001606081525090565b5f73ffffffffffffffffffffffffffffffffffffffff82169050919050565b5f819050919050565b5f61126a61126561126084611228565b611247565b611228565b9050919050565b5f61127b82611250565b9050919050565b5f61128c82611271565b9050919050565b61129c81611282565b82525050565b5f6020820190506112b55f830184611293565b92915050565b5f604051905090565b5f5ffd5b5f5ffd5b5f819050919050565b6112de816112cc565b81146112e8575f5ffd5b50565b5f813590506112f9816112d5565b92915050565b5f5ffd5b5f5ffd5b5f5ffd5b5f5f83601f8401126113205761131f6112ff565b5b8235905067ffffffffffffffff81111561133d5761133c611303565b5b60208301915083602082028301111561135957611358611307565b5b9250929050565b5f5f5f60408486031215611377576113766112c4565b5b5f611384868287016112eb565b935050602084013567ffffffffffffffff8111156113a5576113a46112c8565b5b6113b18682870161130b565b92509250509250925092565b6113c6816112cc565b82525050565b5f6020820190506113df5f8301846113bd565b92915050565b5f6113ef82611271565b9050919050565b6113ff816113e5565b82525050565b5f6020820190506114185f8301846113f6565b92915050565b5f61142882611228565b9050919050565b6114388161141e565b82525050565b5f6020820190506114515f83018461142f565b92915050565b5f6020828403121561146c5761146b6112c4565b5b5f611479848285016112eb565b91505092915050565b5f819050919050565b5f61149582611482565b9050919050565b6114a58161148b565b82525050565b5f6020820190506114be5f83018461149c565b92915050565b5f6114ce82611271565b9050919050565b6114de816114c4565b82525050565b5f6020820190506114f75f8301846114d5565b92915050565b6115068161141e565b8114611510575f5ffd5b50565b5f81519050611521816114fd565b92915050565b5f81519050611535816112d5565b92915050565b5f60ff82169050919050565b6115508161153b565b811461155a575f5ffd5b50565b5f8151905061156b81611547565b92915050565b5f5f5f5f5f5f60c0878903121561158b5761158a6112c4565b5b5f61159889828a01611513565b96505060206115a989828a01611527565b95505060406115ba89828a01611527565b94505060606115cb89828a01611513565b93505060806115dc89828a0161155d565b92505060a06115ed89828a01611527565b9150509295509295509295565b5f82825260208201905092915050565b7f4e6f7420617574686f72697a656420746f2076696577207468697320726573755f8201527f6c74000000000000000000000000000000000000000000000000000000000000602082015250565b5f6116646022836115fa565b915061166f8261160a565b604082019050919050565b5f6020820190508181035f83015261169181611658565b9050919050565b7f526573756c74206e6f74207265616479206f72206661696c65640000000000005f82015250565b5f6116cc601a836115fa565b91506116d782611698565b602082019050919050565b5f6020820190508181035f8301526116f9816116c0565b9050919050565b5f60208284031215611715576117146112c4565b5b5f61172284828501611527565b91505092915050565b5f602082840312156117405761173f6112c4565b5b5f61174d84828501611513565b91505092915050565b5f6060820190506117695f83018661142f565b611776602083018561142f565b61178360408301846113bd565b949350505050565b5f8115159050919050565b61179f8161178b565b81146117a9575f5ffd5b50565b5f815190506117ba81611796565b92915050565b5f602082840312156117d5576117d46112c4565b5b5f6117e2848285016117ac565b91505092915050565b7f546f6b656e207472616e73666572206661696c65642e20436865636b20616c6c5f8201527f6f77616e63652e00000000000000000000000000000000000000000000000000602082015250565b5f6118456027836115fa565b9150611850826117eb565b604082019050919050565b5f6020820190508181035f83015261187281611839565b9050919050565b5f60808201905061188c5f83018761142f565b61189960208301866113bd565b6118a660408301856113bd565b6118b3606083018461142f565b95945050505050565b5f601f19601f8301169050919050565b7f4e487b71000000000000000000000000000000000000000000000000000000005f52604160045260245ffd5b611902826118bc565b810181811067ffffffffffffffff82111715611921576119206118cc565b5b80604052505050565b5f6119336112bb565b905061193f82826118f9565b919050565b5f67ffffffffffffffff82111561195e5761195d6118cc565b5b602082029050602081019050919050565b61197881611482565b8114611982575f5ffd5b50565b5f815190506119938161196f565b92915050565b5f6119ab6119a684611944565b61192a565b905080838252602082019050602084028301858111156119ce576119cd611307565b5b835b818110156119f757806119e38882611985565b8452602084019350506020810190506119d0565b5050509392505050565b5f82601f830112611a1557611a146112ff565b5b8151611a25848260208601611999565b91505092915050565b5f60208284031215611a4357611a426112c4565b5b5f82015167ffffffffffffffff811115611a6057611a5f6112c8565b5b611a6c84828501611a01565b91505092915050565b5f60208284031215611a8a57611a896112c4565b5b5f611a9784828501611985565b91505092915050565b7f4d6f64656c20686173206e6f20776569676874730000000000000000000000005f82015250565b5f611ad46014836115fa565b9150611adf82611aa0565b602082019050919050565b5f6020820190508181035f830152611b0181611ac8565b9050919050565b7f4d6f64656c20657863656564732046484520626c6f636b20676173206c696d695f8201527f7400000000000000000000000000000000000000000000000000000000000000602082015250565b5f611b626021836115fa565b9150611b6d82611b08565b604082019050919050565b5f6020820190508181035f830152611b8f81611b56565b9050919050565b7f496e70757420616e64205765696768742064696d656e73696f6e206d69736d615f8201527f7463680000000000000000000000000000000000000000000000000000000000602082015250565b5f611bf06023836115fa565b9150611bfb82611b96565b604082019050919050565b5f6020820190508181035f830152611c1d81611be4565b9050919050565b7f4e487b71000000000000000000000000000000000000000000000000000000005f52603260045260245ffd5b5f5ffd5b5f82356001608003833603038112611c7057611c6f611c51565b5b80830191505092915050565b5f5ffd5b5f5ffd5b5f81359050611c9281611547565b92915050565b5f5ffd5b5f67ffffffffffffffff821115611cb657611cb56118cc565b5b611cbf826118bc565b9050602081019050919050565b828183375f83830152505050565b5f611cec611ce784611c9c565b61192a565b905082815260208101848484011115611d0857611d07611c98565b5b611d13848285611ccc565b509392505050565b5f82601f830112611d2f57611d2e6112ff565b5b8135611d3f848260208601611cda565b91505092915050565b5f60808284031215611d5d57611d5c611c7c565b5b611d67608061192a565b90505f611d76848285016112eb565b5f830152506020611d8984828501611c84565b6020830152506040611d9d84828501611c84565b604083015250606082013567ffffffffffffffff811115611dc157611dc0611c80565b5b611dcd84828501611d1b565b60608301525092915050565b5f611de43683611d48565b9050919050565b5f604082019050611dfe5f8301856113bd565b611e0b602083018461142f565b9392505050565b611e1b8161153b565b82525050565b5f604082019050611e345f830185611e12565b611e416020830184611e12565b9392505050565b611e51816112cc565b82525050565b611e608161153b565b82525050565b5f81519050919050565b5f82825260208201905092915050565b8281835e5f83830152505050565b5f611e9882611e66565b611ea28185611e70565b9350611eb2818560208601611e80565b611ebb816118bc565b840191505092915050565b5f608083015f830151611edb5f860182611e48565b506020830151611eee6020860182611e57565b506040830151611f016040860182611e57565b5060608301518482036060860152611f198282611e8e565b9150508091505092915050565b5f6040820190508181035f830152611f3e8185611ec6565b9050611f4d602083018461142f565b9392505050565b7f4e487b71000000000000000000000000000000000000000000000000000000005f52602160045260245ffd5b60208110611f9257611f91611f54565b5b50565b5f819050611fa282611f81565b919050565b5f611fb182611f95565b9050919050565b611fc181611fa7565b82525050565b5f81519050919050565b5f82825260208201905092915050565b5f819050602082019050919050565b5f611ffb8383611e48565b60208301905092915050565b5f602082019050919050565b5f61201d82611fc7565b6120278185611fd1565b935061203283611fe1565b805f5b838110156120625781516120498882611ff0565b975061205483612007565b925050600181019050612035565b5085935050505092915050565b5f6080820190506120825f830187611e12565b61208f6020830186611fb8565b81810360408301526120a18185612013565b905081810360608301526120b58184612013565b905095945050505050565b5f8160030b9050919050565b6120d5816120c0565b82525050565b5f6020820190506120ee5f8301846120cc565b9291505056fea2646970667358221220e03f2b372f9310861476a51af76a8ea9a1682c81e286f11b8c1b7d03c3a2365c64736f6c634300081c0033",
  "linkReferences": {},
  "deployedLinkReferences": {}
}