{
  "_format": "hh-sol-artifact-1",
  "contractName": "BlindInference",
  "sourceName": "contracts/BlindInference.sol",
  "abi": [
    {
      "inputs": [
        {
          "internalType": "address",
          "name": "registryAddress",
          "type": "address"
        },
        {
          "internalType": "address",
          "name": "escrowAddress",
          "type": "address"
        }
      ],
      "stateMutability": "nonpayable",
      "type": "constructor"
    },
    {
      "anonymous": false,
      "inputs": [
        {
          "indexed": true,
          "internalType": "uint256",
          "name": "requestId",
          "type": "uint256"
        },
        {
          "indexed": true,
          "internalType": "address",
          "name": "requester",
          "type": "address"
        }
      ],
      "name": "InferenceCompleted",
      "type": "event"
    },
    {
      "anonymous": false,
      "inputs": [
        {
          "indexed": true,
          "internalType": "uint256",
          "name": "requestId",
          "type": "uint256"
        },
        {
          "indexed": true,
          "internalType": "address",
          "name": "requester",
          "type": "address"
        },
        {
          "indexed": true,
          "internalType": "uint256",
          "name": "modelId",
          "type": "uint256"
        }
      ],
      "name": "PredictionRequested",
      "type": "event"
    },
    {
      "inputs": [],
      "name": "MAX_WEIGHTS_PER_BLOCK",
      "outputs": [
        {
          "internalType": "uint256",
          "name": "",
          "type": "uint256"
        }
      ],
      "stateMutability": "view",
      "type": "function"
    },
    {
      "inputs": [],
      "name": "escrow",
      "outputs": [
        {
          "internalType": "contract IPaymentEscrow",
          "name": "",
          "type": "address"
        }
      ],
      "stateMutability": "view",
      "type": "function"
    },
    {
      "inputs": [
        {
          "internalType": "uint256",
          "name": "requestId",
          "type": "uint256"
        }
      ],
      "name": "getResult",
      "outputs": [
        {
          "internalType": "euint32",
          "name": "",
          "type": "uint256"
        }
      ],
      "stateMutability": "view",
      "type": "function"
    },
    {
      "inputs": [],
      "name": "owner",
      "outputs": [
        {
          "internalType": "address",
          "name": "",
          "type": "address"
        }
      ],
      "stateMutability": "view",
      "type": "function"
    },
    {
      "inputs": [
        {
          "internalType": "uint256",
          "name": "requestId",
          "type": "uint256"
        },
        {
          "components": [
            {
              "internalType": "bytes",
              "name": "data",
              "type": "bytes"
            },
            {
              "internalType": "int32",
              "name": "securityZone",
              "type": "int32"
            }
          ],
          "internalType": "struct inEuint32[]",
          "name": "encryptedInputs",
          "type": "tuple[]"
        }
      ],
      "name": "predict",
      "outputs": [],
      "stateMutability": "nonpayable",
      "type": "function"
    },
    {
      "inputs": [],
      "name": "registry",
      "outputs": [
        {
          "internalType": "contract IModelRegistry",
          "name": "",
          "type": "address"
        }
      ],
      "stateMutability": "view",
      "type": "function"
    },
    {
      "inputs": [
        {
          "internalType": "uint256",
          "name": "requestId",
          "type": "uint256"
        },
        {
          "components": [
            {
              "internalType": "bytes",
              "name": "data",
              "type": "bytes"
            },
            {
              "internalType": "int32",
              "name": "securityZone",
              "type": "int32"
            }
          ],
          "internalType": "struct inEuint32[]",
          "name": "encryptedInputs",
          "type": "tuple[]"
        }
      ],
      "name": "runInference",
      "outputs": [],
      "stateMutability": "nonpayable",
      "type": "function"
    }
  ],
  "bytecode": "0x60806040523480156200001157600080fd5b506040516200203538038062002035833981810160405281019062000037919062000177565b8181336000806101000a81548173ffffffffffffffffffffffffffffffffffffffff021916908373ffffffffffffffffffffffffffffffffffffffff16021790555081600160006101000a81548173ffffffffffffffffffffffffffffffffffffffff021916908373ffffffffffffffffffffffffffffffffffffffff16021790555080600260006101000a81548173ffffffffffffffffffffffffffffffffffffffff021916908373ffffffffffffffffffffffffffffffffffffffff160217905550600160038190555050505050620001be565b600080fd5b600073ffffffffffffffffffffffffffffffffffffffff82169050919050565b60006200013f8262000112565b9050919050565b620001518162000132565b81146200015d57600080fd5b50565b600081519050620001718162000146565b92915050565b600080604083850312156200019157620001906200010d565b5b6000620001a18582860162000160565b9250506020620001b48582860162000160565b9150509250929050565b611e6780620001ce6000396000f3fe608060405234801561001057600080fd5b506004361061007d5760003560e01c80638fce9fb31161005b5780638fce9fb3146100da578063995e4339146100f8578063d35f4d0a14610128578063e2fdcc17146101445761007d565b806365e016e9146100825780637b1039991461009e5780638da5cb5b146100bc575b600080fd5b61009c600480360381019061009791906110fd565b610162565b005b6100a66102b2565b6040516100b391906111dc565b60405180910390f35b6100c46102d8565b6040516100d19190611218565b60405180910390f35b6100e26102fc565b6040516100ef9190611242565b60405180910390f35b610112600480360381019061010d919061125d565b610301565b60405161011f91906112bb565b60405180910390f35b610142600480360381019061013d91906110fd565b61048c565b005b61014c6104f1565b60405161015991906112f7565b60405180910390f35b6002600354036101a7576040517f08c379a000000000000000000000000000000000000000000000000000000000815260040161019e9061136f565b60405180910390fd5b60026003819055506000600260009054906101000a900473ffffffffffffffffffffffffffffffffffffffff1673ffffffffffffffffffffffffffffffffffffffff1663012f52ee856040518263ffffffff1660e01b815260040161020c9190611242565b60c060405180830381865afa158015610229573d6000803e3d6000fd5b505050506040513d601f19601f8201168201806040525081019061024d9190611409565b50505050915050803373ffffffffffffffffffffffffffffffffffffffff16857f34f53e5a52b04b5a716d2b5309ea1dce9d84dd3de6846d214f89491c8411c85460405160405180910390a46102a4848484610517565b506001600381905550505050565b600160009054906101000a900473ffffffffffffffffffffffffffffffffffffffff1681565b60008054906101000a900473ffffffffffffffffffffffffffffffffffffffff1681565b600f81565b600080600260009054906101000a900473ffffffffffffffffffffffffffffffffffffffff1673ffffffffffffffffffffffffffffffffffffffff1663012f52ee846040518263ffffffff1660e01b815260040161035f9190611242565b60c060405180830381865afa15801561037c573d6000803e3d6000fd5b505050506040513d601f19601f820116820180604052508101906103a09190611409565b505050505090508073ffffffffffffffffffffffffffffffffffffffff163373ffffffffffffffffffffffffffffffffffffffff1614610415576040517f08c379a000000000000000000000000000000000000000000000000000000000815260040161040c90611508565b60405180910390fd5b6104316004600085815260200190815260200160002054610ae8565b610470576040517f08c379a000000000000000000000000000000000000000000000000000000000815260040161046790611574565b60405180910390fd5b6004600084815260200190815260200160002054915050919050565b6002600354036104d1576040517f08c379a00000000000000000000000000000000000000000000000000000000081526004016104c89061136f565b60405180910390fd5b60026003819055506104e4838383610517565b6001600381905550505050565b600260009054906101000a900473ffffffffffffffffffffffffffffffffffffffff1681565b6000806000600260009054906101000a900473ffffffffffffffffffffffffffffffffffffffff1673ffffffffffffffffffffffffffffffffffffffff1663012f52ee876040518263ffffffff1660e01b81526004016105779190611242565b60c060405180830381865afa158015610594573d6000803e3d6000fd5b505050506040513d601f19601f820116820180604052508101906105b89190611409565b5094505050925092508273ffffffffffffffffffffffffffffffffffffffff163373ffffffffffffffffffffffffffffffffffffffff161461062f576040517f08c379a0000000000000000000000000000000000000000000000000000000008152600401610626906115e0565b60405180910390fd5b60018160ff1614610675576040517f08c379a000000000000000000000000000000000000000000000000000000000815260040161066c9061164c565b60405180910390fd5b600260009054906101000a900473ffffffffffffffffffffffffffffffffffffffff1673ffffffffffffffffffffffffffffffffffffffff1663e89ec448876040518263ffffffff1660e01b81526004016106d09190611242565b600060405180830381600087803b1580156106ea57600080fd5b505af11580156106fe573d6000803e3d6000fd5b505050506000600160009054906101000a900473ffffffffffffffffffffffffffffffffffffffff1673ffffffffffffffffffffffffffffffffffffffff1663bd740118846040518263ffffffff1660e01b815260040161075f9190611242565b600060405180830381865afa15801561077c573d6000803e3d6000fd5b505050506040513d6000823e3d601f19601f820116820180604052508101906107a591906117e7565b90506000600160009054906101000a900473ffffffffffffffffffffffffffffffffffffffff1673ffffffffffffffffffffffffffffffffffffffff1663b911cb09856040518263ffffffff1660e01b81526004016108049190611242565b602060405180830381865afa158015610821573d6000803e3d6000fd5b505050506040513d601f19601f820116820180604052508101906108459190611830565b9050600082511161088b576040517f08c379a0000000000000000000000000000000000000000000000000000000008152600401610882906118a9565b60405180910390fd5b600f825111156108d0576040517f08c379a00000000000000000000000000000000000000000000000000000000081526004016108c79061193b565b60405180910390fd5b86869050825114610916576040517f08c379a000000000000000000000000000000000000000000000000000000000815260040161090d906119cd565b60405180910390fd5b60006109226000610af5565b905060005b83518110156109a75760006109688a8a84818110610948576109476119ed565b5b905060200281019061095a9190611a21565b61096390611bad565b610b0b565b90506109978361099283888681518110610985576109846119ed565b5b6020026020010151610b26565b610b9f565b9250508080600101915050610927565b506109b28183610b9f565b905060006109c06080610af5565b905060006109ce8383610c17565b905060006109ef826109e06001610af5565b6109ea6000610af5565b610c90565b905080600460008e815260200190815260200160002081905550600260009054906101000a900473ffffffffffffffffffffffffffffffffffffffff1673ffffffffffffffffffffffffffffffffffffffff166337bdc99b8d6040518263ffffffff1660e01b8152600401610a649190611242565b600060405180830381600087803b158015610a7e57600080fd5b505af1158015610a92573d6000803e3d6000fd5b505050503373ffffffffffffffffffffffffffffffffffffffff168c7f9a75044dc02b52d82cd403d41728daf22d51454f91edb9449300dab670bb29c660405160405180910390a3505050505050505050505050565b6000808214159050919050565b6000610b048260026000610d0e565b9050919050565b6000610b1f82600001518360200151610db3565b9050919050565b6000610b3183610ae8565b610b4257610b3f6000610af5565b92505b610b4b82610ae8565b610b5c57610b596000610af5565b91505b600083905060008390506000610b9160028484608073ffffffffffffffffffffffffffffffffffffffff16634284f765610dc9565b905080935050505092915050565b6000610baa83610ae8565b610bbb57610bb86000610af5565b92505b610bc482610ae8565b610bd557610bd26000610af5565b91505b600083905060008390506000610c0960028484608073ffffffffffffffffffffffffffffffffffffffff16622df619610dc9565b905080935050505092915050565b6000610c2283610ae8565b610c3357610c306000610af5565b92505b610c3c82610ae8565b610c4d57610c4a6000610af5565b91505b600083905060008390506000610c8260028484608073ffffffffffffffffffffffffffffffffffffffff1663650de1cf610dc9565b905080935050505092915050565b6000610c9b84610e5d565b610cac57610ca96000610e6a565b93505b610cb583610ae8565b610cc657610cc36000610af5565b92505b610ccf82610ae8565b610ce057610cdd6000610af5565b91505b6000849050600084905060008490506000610cfe6002858585610e80565b9050809450505050509392505050565b60006060608073ffffffffffffffffffffffffffffffffffffffff1663ba19ac28610d3887610f38565b86866040518463ffffffff1660e01b8152600401610d5893929190611c5d565b600060405180830381865afa158015610d75573d6000803e3d6000fd5b505050506040513d6000823e3d601f19601f82011682018060405250810190610d9e9190611d0b565b9050610da981610f95565b9150509392505050565b6000610dc183600284610fa3565b905092915050565b60006060838388610dd989610f38565b610de289610f38565b6040518463ffffffff1660e01b8152600401610e0093929190611d54565b600060405180830381865afa158015610e1d573d6000803e3d6000fd5b505050506040513d6000823e3d601f19601f82011682018060405250810190610e469190611d0b565b9050610e5181611040565b91505095945050505050565b6000808214159050919050565b6000610e7982600d6000610d0e565b9050919050565b60006060608073ffffffffffffffffffffffffffffffffffffffff1663c2d9695287610eab88610f38565b610eb488610f38565b610ebd88610f38565b6040518563ffffffff1660e01b8152600401610edc9493929190611d99565b600060405180830381865afa158015610ef9573d6000803e3d6000fd5b505050506040513d6000823e3d601f19601f82011682018060405250810190610f229190611d0b565b9050610f2d81610f95565b915050949350505050565b6060602067ffffffffffffffff811115610f5557610f5461167d565b5b6040519080825280601f01601f191660200182016040528015610f875781602001600182028036833780820191505090505b509050816020820152919050565b600060208201519050919050565b60006060608073ffffffffffffffffffffffffffffffffffffffff166321b50ba38587866040518463ffffffff1660e01b8152600401610fe593929190611df3565b600060405180830381865afa158015611002573d6000803e3d6000fd5b505050506040513d6000823e3d601f19601f8201168201806040525081019061102b9190611d0b565b905061103681610f95565b9150509392505050565b600060208201519050919050565b6000604051905090565b600080fd5b600080fd5b6000819050919050565b61107581611062565b811461108057600080fd5b50565b6000813590506110928161106c565b92915050565b600080fd5b600080fd5b600080fd5b60008083601f8401126110bd576110bc611098565b5b8235905067ffffffffffffffff8111156110da576110d961109d565b5b6020830191508360208202830111156110f6576110f56110a2565b5b9250929050565b60008060006040848603121561111657611115611058565b5b600061112486828701611083565b935050602084013567ffffffffffffffff8111156111455761114461105d565b5b611151868287016110a7565b92509250509250925092565b600073ffffffffffffffffffffffffffffffffffffffff82169050919050565b6000819050919050565b60006111a261119d6111988461115d565b61117d565b61115d565b9050919050565b60006111b482611187565b9050919050565b60006111c6826111a9565b9050919050565b6111d6816111bb565b82525050565b60006020820190506111f160008301846111cd565b92915050565b60006112028261115d565b9050919050565b611212816111f7565b82525050565b600060208201905061122d6000830184611209565b92915050565b61123c81611062565b82525050565b60006020820190506112576000830184611233565b92915050565b60006020828403121561127357611272611058565b5b600061128184828501611083565b91505092915050565b60006112a56112a061129b84611062565b61117d565b611062565b9050919050565b6112b58161128a565b82525050565b60006020820190506112d060008301846112ac565b92915050565b60006112e1826111a9565b9050919050565b6112f1816112d6565b82525050565b600060208201905061130c60008301846112e8565b92915050565b600082825260208201905092915050565b7f5265656e7472616e637947756172643a207265656e7472616e742063616c6c00600082015250565b6000611359601f83611312565b915061136482611323565b602082019050919050565b600060208201905081810360008301526113888161134c565b9050919050565b611398816111f7565b81146113a357600080fd5b50565b6000815190506113b58161138f565b92915050565b6000815190506113ca8161106c565b92915050565b600060ff82169050919050565b6113e6816113d0565b81146113f157600080fd5b50565b600081519050611403816113dd565b92915050565b60008060008060008060c0878903121561142657611425611058565b5b600061143489828a016113a6565b965050602061144589828a016113bb565b955050604061145689828a016113bb565b945050606061146789828a016113a6565b935050608061147889828a016113f4565b92505060a061148989828a016113bb565b9150509295509295509295565b7f4e6f7420617574686f72697a656420746f20766965772074686973207265737560008201527f6c74000000000000000000000000000000000000000000000000000000000000602082015250565b60006114f2602283611312565b91506114fd82611496565b604082019050919050565b60006020820190508181036000830152611521816114e5565b9050919050565b7f526573756c74206e6f74207265616479206f72206661696c6564000000000000600082015250565b600061155e601a83611312565b915061156982611528565b602082019050919050565b6000602082019050818103600083015261158d81611551565b9050919050565b7f4e6f742074686520617574686f72697a65642072657175657374657200000000600082015250565b60006115ca601c83611312565b91506115d582611594565b602082019050919050565b600060208201905081810360008301526115f9816115bd565b9050919050565b7f52657175657374206973206e6f742050454e44494e4700000000000000000000600082015250565b6000611636601683611312565b915061164182611600565b602082019050919050565b6000602082019050818103600083015261166581611629565b9050919050565b6000601f19601f8301169050919050565b7f4e487b7100000000000000000000000000000000000000000000000000000000600052604160045260246000fd5b6116b58261166c565b810181811067ffffffffffffffff821117156116d4576116d361167d565b5b80604052505050565b60006116e761104e565b90506116f382826116ac565b919050565b600067ffffffffffffffff8211156117135761171261167d565b5b602082029050602081019050919050565b61172d81611062565b811461173857600080fd5b50565b60008151905061174a81611724565b92915050565b600061176361175e846116f8565b6116dd565b90508083825260208201905060208402830185811115611786576117856110a2565b5b835b818110156117af578061179b888261173b565b845260208401935050602081019050611788565b5050509392505050565b600082601f8301126117ce576117cd611098565b5b81516117de848260208601611750565b91505092915050565b6000602082840312156117fd576117fc611058565b5b600082015167ffffffffffffffff81111561181b5761181a61105d565b5b611827848285016117b9565b91505092915050565b60006020828403121561184657611845611058565b5b60006118548482850161173b565b91505092915050565b7f4d6f64656c20686173206e6f2077656967687473000000000000000000000000600082015250565b6000611893601483611312565b915061189e8261185d565b602082019050919050565b600060208201905081810360008301526118c281611886565b9050919050565b7f4d6f64656c20657863656564732046484520626c6f636b20676173206c696d6960008201527f7400000000000000000000000000000000000000000000000000000000000000602082015250565b6000611925602183611312565b9150611930826118c9565b604082019050919050565b6000602082019050818103600083015261195481611918565b9050919050565b7f496e70757420616e64205765696768742064696d656e73696f6e206d69736d6160008201527f7463680000000000000000000000000000000000000000000000000000000000602082015250565b60006119b7602383611312565b91506119c28261195b565b604082019050919050565b600060208201905081810360008301526119e6816119aa565b9050919050565b7f4e487b7100000000000000000000000000000000000000000000000000000000600052603260045260246000fd5b600080fd5b600082356001604003833603038112611a3d57611a3c611a1c565b5b80830191505092915050565b600080fd5b600080fd5b600080fd5b600067ffffffffffffffff821115611a7357611a7261167d565b5b611a7c8261166c565b9050602081019050919050565b82818337600083830152505050565b6000611aab611aa684611a58565b6116dd565b905082815260208101848484011115611ac757611ac6611a53565b5b611ad2848285611a89565b509392505050565b600082601f830112611aef57611aee611098565b5b8135611aff848260208601611a98565b91505092915050565b60008160030b9050919050565b611b1e81611b08565b8114611b2957600080fd5b50565b600081359050611b3b81611b15565b92915050565b600060408284031215611b5757611b56611a49565b5b611b6160406116dd565b9050600082013567ffffffffffffffff811115611b8157611b80611a4e565b5b611b8d84828501611ada565b6000830152506020611ba184828501611b2c565b60208301525092915050565b6000611bb93683611b41565b9050919050565b600081519050919050565b600082825260208201905092915050565b60005b83811015611bfa578082015181840152602081019050611bdf565b60008484015250505050565b6000611c1182611bc0565b611c1b8185611bcb565b9350611c2b818560208601611bdc565b611c348161166c565b840191505092915050565b611c48816113d0565b82525050565b611c5781611b08565b82525050565b60006060820190508181036000830152611c778186611c06565b9050611c866020830185611c3f565b611c936040830184611c4e565b949350505050565b6000611cae611ca984611a58565b6116dd565b905082815260208101848484011115611cca57611cc9611a53565b5b611cd5848285611bdc565b509392505050565b600082601f830112611cf257611cf1611098565b5b8151611d02848260208601611c9b565b91505092915050565b600060208284031215611d2157611d20611058565b5b600082015167ffffffffffffffff811115611d3f57611d3e61105d565b5b611d4b84828501611cdd565b91505092915050565b6000606082019050611d696000830186611c3f565b8181036020830152611d7b8185611c06565b90508181036040830152611d8f8184611c06565b9050949350505050565b6000608082019050611dae6000830187611c3f565b8181036020830152611dc08186611c06565b90508181036040830152611dd48185611c06565b90508181036060830152611de88184611c06565b905095945050505050565b6000606082019050611e086000830186611c3f565b8181036020830152611e1a8185611c06565b9050611e296040830184611c4e565b94935050505056fea26469706673582212209d0ad695464f9e453b8889e0dbdd5c9cf04abe513f51319b21b7cf53c0b1e14464736f6c63430008180033",
  "linkReferences": {},
  "deployedLinkReferences": {}
}