{
  "_format": "hh-sol-artifact-1",
  "contractName": "PaymentEscrow",
  "sourceName": "contracts/PaymentEscrow.sol",
  "abi": [
    {
      "inputs": [
        {
          "internalType": "address",
          "name": "paymentTokenAddress",
          "type": "address"
        },
        {
          "internalType": "address",
          "name": "registryAddress",
          "type": "address"
        },
        {
          "internalType": "address",
          "name": "treasury",
          "type": "address"
        }
      ],
      "stateMutability": "nonpayable",
      "type": "constructor"
    },
    {
      "anonymous": false,
      "inputs": [
        {
          "indexed": true,
          "internalType": "uint256",
          "name": "requestId",
          "type": "uint256"
        },
        {
          "indexed": true,
          "internalType": "address",
          "name": "requester",
          "type": "address"
        },
        {
          "indexed": true,
          "internalType": "uint256",
          "name": "modelId",
          "type": "uint256"
        },
        {
          "indexed": false,
          "internalType": "uint256",
          "name": "amount",
          "type": "uint256"
        }
      ],
      "name": "FeeLocked",
      "type": "event"
    },
    {
      "anonymous": false,
      "inputs": [
        {
          "indexed": true,
          "internalType": "uint256",
          "name": "requestId",
          "type": "uint256"
        },
        {
          "indexed": true,
          "internalType": "address",
          "name": "requester",
          "type": "address"
        },
        {
          "indexed": false,
          "internalType": "uint256",
          "name": "amount",
          "type": "uint256"
        }
      ],
      "name": "FeeRefunded",
      "type": "event"
    },
    {
      "anonymous": false,
      "inputs": [
        {
          "indexed": true,
          "internalType": "uint256",
          "name": "requestId",
          "type": "uint256"
        },
        {
          "indexed": true,
          "internalType": "address",
          "name": "labWallet",
          "type": "address"
        },
        {
          "indexed": false,
          "internalType": "uint256",
          "name": "labAmount",
          "type": "uint256"
        },
        {
          "indexed": false,
          "internalType": "uint256",
          "name": "protocolAmount",
          "type": "uint256"
        }
      ],
      "name": "FeeReleased",
      "type": "event"
    },
    {
      "anonymous": false,
      "inputs": [
        {
          "indexed": true,
          "internalType": "uint256",
          "name": "requestId",
          "type": "uint256"
        }
      ],
      "name": "ProcessingStarted",
      "type": "event"
    },
    {
      "inputs": [],
      "name": "TIMEOUT_DURATION",
      "outputs": [
        {
          "internalType": "uint256",
          "name": "",
          "type": "uint256"
        }
      ],
      "stateMutability": "view",
      "type": "function"
    },
    {
      "inputs": [
        {
          "internalType": "uint256",
          "name": "",
          "type": "uint256"
        }
      ],
      "name": "escrows",
      "outputs": [
        {
          "internalType": "address",
          "name": "requester",
          "type": "address"
        },
        {
          "internalType": "uint256",
          "name": "modelId",
          "type": "uint256"
        },
        {
          "internalType": "uint256",
          "name": "amount",
          "type": "uint256"
        },
        {
          "internalType": "address",
          "name": "labWallet",
          "type": "address"
        },
        {
          "internalType": "enum PaymentEscrow.RequestStatus",
          "name": "status",
          "type": "uint8"
        },
        {
          "internalType": "uint256",
          "name": "timestamp",
          "type": "uint256"
        }
      ],
      "stateMutability": "view",
      "type": "function"
    },
    {
      "inputs": [],
      "name": "feeTreasury",
      "outputs": [
        {
          "internalType": "address",
          "name": "",
          "type": "address"
        }
      ],
      "stateMutability": "view",
      "type": "function"
    },
    {
      "inputs": [
        {
          "internalType": "uint256",
          "name": "requestId",
          "type": "uint256"
        }
      ],
      "name": "forceRefund",
      "outputs": [],
      "stateMutability": "nonpayable",
      "type": "function"
    },
    {
      "inputs": [
        {
          "internalType": "uint256",
          "name": "requestId",
          "type": "uint256"
        }
      ],
      "name": "getRequestStatus",
      "outputs": [
        {
          "internalType": "enum PaymentEscrow.RequestStatus",
          "name": "",
          "type": "uint8"
        }
      ],
      "stateMutability": "view",
      "type": "function"
    },
    {
      "inputs": [],
      "name": "inferenceEngine",
      "outputs": [
        {
          "internalType": "address",
          "name": "",
          "type": "address"
        }
      ],
      "stateMutability": "view",
      "type": "function"
    },
    {
      "inputs": [
        {
          "internalType": "uint256",
          "name": "modelId",
          "type": "uint256"
        }
      ],
      "name": "lockFee",
      "outputs": [
        {
          "internalType": "uint256",
          "name": "",
          "type": "uint256"
        }
      ],
      "stateMutability": "nonpayable",
      "type": "function"
    },
    {
      "inputs": [
        {
          "internalType": "address",
          "name": "requester",
          "type": "address"
        },
        {
          "internalType": "uint256",
          "name": "modelId",
          "type": "uint256"
        },
        {
          "internalType": "uint256",
          "name": "amount",
          "type": "uint256"
        },
        {
          "internalType": "address",
          "name": "labWallet",
          "type": "address"
        }
      ],
      "name": "lockFeeFromInference",
      "outputs": [
        {
          "internalType": "uint256",
          "name": "",
          "type": "uint256"
        }
      ],
      "stateMutability": "nonpayable",
      "type": "function"
    },
    {
      "inputs": [
        {
          "internalType": "uint256",
          "name": "requestId",
          "type": "uint256"
        }
      ],
      "name": "markProcessing",
      "outputs": [],
      "stateMutability": "nonpayable",
      "type": "function"
    },
    {
      "inputs": [],
      "name": "owner",
      "outputs": [
        {
          "internalType": "address",
          "name": "",
          "type": "address"
        }
      ],
      "stateMutability": "view",
      "type": "function"
    },
    {
      "inputs": [],
      "name": "paymentToken",
      "outputs": [
        {
          "internalType": "contract IERC20",
          "name": "",
          "type": "address"
        }
      ],
      "stateMutability": "view",
      "type": "function"
    },
    {
      "inputs": [],
      "name": "protocolFeeBps",
      "outputs": [
        {
          "internalType": "uint256",
          "name": "",
          "type": "uint256"
        }
      ],
      "stateMutability": "view",
      "type": "function"
    },
    {
      "inputs": [
        {
          "internalType": "uint256",
          "name": "requestId",
          "type": "uint256"
        }
      ],
      "name": "refund",
      "outputs": [],
      "stateMutability": "nonpayable",
      "type": "function"
    },
    {
      "inputs": [],
      "name": "registry",
      "outputs": [
        {
          "internalType": "contract IModelRegistryForEscrow",
          "name": "",
          "type": "address"
        }
      ],
      "stateMutability": "view",
      "type": "function"
    },
    {
      "inputs": [
        {
          "internalType": "uint256",
          "name": "requestId",
          "type": "uint256"
        }
      ],
      "name": "release",
      "outputs": [],
      "stateMutability": "nonpayable",
      "type": "function"
    },
    {
      "inputs": [],
      "name": "requestCount",
      "outputs": [
        {
          "internalType": "uint256",
          "name": "",
          "type": "uint256"
        }
      ],
      "stateMutability": "view",
      "type": "function"
    },
    {
      "inputs": [
        {
          "internalType": "address",
          "name": "engine",
          "type": "address"
        }
      ],
      "name": "setInferenceEngine",
      "outputs": [],
      "stateMutability": "nonpayable",
      "type": "function"
    },
    {
      "inputs": [
        {
          "internalType": "uint256",
          "name": "bps",
          "type": "uint256"
        }
      ],
      "name": "setProtocolFee",
      "outputs": [],
      "stateMutability": "nonpayable",
      "type": "function"
    }
  ],
  "bytecode": "0x608060405260fa600555348015610014575f5ffd5b5060405161291f38038061291f833981810160405281019061003691906101a3565b335f5f6101000a81548173ffffffffffffffffffffffffffffffffffffffff021916908373ffffffffffffffffffffffffffffffffffffffff1602179055508060025f6101000a81548173ffffffffffffffffffffffffffffffffffffffff021916908373ffffffffffffffffffffffffffffffffffffffff1602179055508260035f6101000a81548173ffffffffffffffffffffffffffffffffffffffff021916908373ffffffffffffffffffffffffffffffffffffffff1602179055508160045f6101000a81548173ffffffffffffffffffffffffffffffffffffffff021916908373ffffffffffffffffffffffffffffffffffffffff16021790555060016008819055505050506101f3565b5f5ffd5b5f73ffffffffffffffffffffffffffffffffffffffff82169050919050565b5f61017282610149565b9050919050565b61018281610168565b811461018c575f5ffd5b50565b5f8151905061019d81610179565b92915050565b5f5f5f606084860312156101ba576101b9610145565b5b5f6101c78682870161018f565b93505060206101d88682870161018f565b92505060406101e98682870161018f565b9150509250925092565b61271f806102005f395ff3fe608060405234801561000f575f5ffd5b5060043610610113575f3560e01c806360dc2340116100a05780638da5cb5b1161006f5780638da5cb5b146102d0578063a3ee3421146102ee578063d8a4676f1461030a578063e89ec4481461033a578063eaf7ac9f1461035657610113565b806360dc234014610248578063787dce3d146102665780637b10399914610282578063816eba6b146102a057610113565b80633013ce29116100e75780633013ce29146101a257806335659fb8146101c057806337bdc99b146101de578063493c8ac4146101fa5780635badbe4c1461022a57610113565b806293bd1414610117578063012f52ee1461013557806305f8d94c1461016a578063278ecde114610186575b5f5ffd5b61011f610374565b60405161012c9190611a48565b60405180910390f35b61014f600480360381019061014a9190611a98565b610399565b60405161016196959493929190611b45565b60405180910390f35b610184600480360381019061017f9190611a98565b61041c565b005b6101a0600480360381019061019b9190611a98565b610751565b005b6101aa610a32565b6040516101b79190611bff565b60405180910390f35b6101c8610a57565b6040516101d59190611c18565b60405180910390f35b6101f860048036038101906101f39190611a98565b610a5d565b005b610214600480360381019061020f9190611a98565b610f38565b6040516102219190611c18565b60405180910390f35b61023261137c565b60405161023f9190611c18565b60405180910390f35b610250611382565b60405161025d9190611a48565b60405180910390f35b610280600480360381019061027b9190611a98565b6113a7565b005b61028a611484565b6040516102979190611c51565b60405180910390f35b6102ba60048036038101906102b59190611c94565b6114a9565b6040516102c79190611c18565b60405180910390f35b6102d861175f565b6040516102e59190611a48565b60405180910390f35b61030860048036038101906103039190611cf8565b611783565b005b610324600480360381019061031f9190611a98565b611854565b6040516103319190611d23565b60405180910390f35b610354600480360381019061034f9190611a98565b61187e565b005b61035e611a02565b60405161036b9190611c18565b60405180910390f35b60015f9054906101000a900473ffffffffffffffffffffffffffffffffffffffff1681565b6007602052805f5260405f205f91509050805f015f9054906101000a900473ffffffffffffffffffffffffffffffffffffffff1690806001015490806002015490806003015f9054906101000a900473ffffffffffffffffffffffffffffffffffffffff16908060030160149054906101000a900460ff16908060040154905086565b600260085403610461576040517f08c379a000000000000000000000000000000000000000000000000000000000815260040161045890611d96565b60405180910390fd5b60026008819055505f60075f8381526020019081526020015f2090503373ffffffffffffffffffffffffffffffffffffffff16815f015f9054906101000a900473ffffffffffffffffffffffffffffffffffffffff1673ffffffffffffffffffffffffffffffffffffffff161461050d576040517f08c379a000000000000000000000000000000000000000000000000000000000815260040161050490611dfe565b60405180910390fd5b6002600481111561052157610520611ad2565b5b8160030160149054906101000a900460ff16600481111561054557610544611ad2565b5b14610585576040517f08c379a000000000000000000000000000000000000000000000000000000000815260040161057c90611e66565b60405180910390fd5b6201518081600401546105989190611eb1565b42116105d9576040517f08c379a00000000000000000000000000000000000000000000000000000000081526004016105d090611f2e565b60405180910390fd5b60048160030160146101000a81548160ff0219169083600481111561060157610600611ad2565b5b02179055505f816002015411156106f25760035f9054906101000a900473ffffffffffffffffffffffffffffffffffffffff1673ffffffffffffffffffffffffffffffffffffffff1663a9059cbb3383600201546040518363ffffffff1660e01b8152600401610672929190611f4c565b6020604051808303815f875af115801561068e573d5f5f3e3d5ffd5b505050506040513d601f19601f820116820180604052508101906106b29190611fa8565b6106f1576040517f08c379a00000000000000000000000000000000000000000000000000000000081526004016106e89061201d565b60405180910390fd5b5b3373ffffffffffffffffffffffffffffffffffffffff16827fd0a0d80667b5ed3ace8c9ff96305d7bde34ddaac3c5e0d62bf5f1e17b78dbf0e836002015460405161073d9190611c18565b60405180910390a350600160088190555050565b600260085403610796576040517f08c379a000000000000000000000000000000000000000000000000000000000815260040161078d90611d96565b60405180910390fd5b60026008819055505f60075f8381526020019081526020015f2090503373ffffffffffffffffffffffffffffffffffffffff16815f015f9054906101000a900473ffffffffffffffffffffffffffffffffffffffff1673ffffffffffffffffffffffffffffffffffffffff1614610842576040517f08c379a000000000000000000000000000000000000000000000000000000000815260040161083990611dfe565b60405180910390fd5b6001600481111561085657610855611ad2565b5b8160030160149054906101000a900460ff16600481111561087a57610879611ad2565b5b146108ba576040517f08c379a00000000000000000000000000000000000000000000000000000000081526004016108b1906120ab565b60405180910390fd5b60048160030160146101000a81548160ff021916908360048111156108e2576108e1611ad2565b5b02179055505f816002015411156109d35760035f9054906101000a900473ffffffffffffffffffffffffffffffffffffffff1673ffffffffffffffffffffffffffffffffffffffff1663a9059cbb3383600201546040518363ffffffff1660e01b8152600401610953929190611f4c565b6020604051808303815f875af115801561096f573d5f5f3e3d5ffd5b505050506040513d601f19601f820116820180604052508101906109939190611fa8565b6109d2576040517f08c379a00000000000000000000000000000000000000000000000000000000081526004016109c990612113565b60405180910390fd5b5b3373ffffffffffffffffffffffffffffffffffffffff16827fd0a0d80667b5ed3ace8c9ff96305d7bde34ddaac3c5e0d62bf5f1e17b78dbf0e8360020154604051610a1e9190611c18565b60405180910390a350600160088190555050565b60035f9054906101000a900473ffffffffffffffffffffffffffffffffffffffff1681565b60055481565b60015f9054906101000a900473ffffffffffffffffffffffffffffffffffffffff1673ffffffffffffffffffffffffffffffffffffffff163373ffffffffffffffffffffffffffffffffffffffff1614610aec576040517f08c379a0000000000000000000000000000000000000000000000000000000008152600401610ae39061217b565b60405180910390fd5b600260085403610b31576040517f08c379a0000000000000000000000000000000000000000000000000000000008152600401610b2890611d96565b60405180910390fd5b60026008819055505f60075f8381526020019081526020015f20905060026004811115610b6157610b60611ad2565b5b8160030160149054906101000a900460ff166004811115610b8557610b84611ad2565b5b14610bc5576040517f08c379a0000000000000000000000000000000000000000000000000000000008152600401610bbc906121e3565b60405180910390fd5b60038160030160146101000a81548160ff02191690836004811115610bed57610bec611ad2565b5b02179055505f816002015490505f811115610eb6575f61271060055483610c149190612201565b610c1e919061226f565b90505f8183610c2d919061229f565b90505f821115610d345760035f9054906101000a900473ffffffffffffffffffffffffffffffffffffffff1673ffffffffffffffffffffffffffffffffffffffff1663a9059cbb60025f9054906101000a900473ffffffffffffffffffffffffffffffffffffffff16846040518363ffffffff1660e01b8152600401610cb4929190611f4c565b6020604051808303815f875af1158015610cd0573d5f5f3e3d5ffd5b505050506040513d601f19601f82011682018060405250810190610cf49190611fa8565b610d33576040517f08c379a0000000000000000000000000000000000000000000000000000000008152600401610d2a9061231c565b60405180910390fd5b5b5f811115610e3b5760035f9054906101000a900473ffffffffffffffffffffffffffffffffffffffff1673ffffffffffffffffffffffffffffffffffffffff1663a9059cbb856003015f9054906101000a900473ffffffffffffffffffffffffffffffffffffffff16836040518363ffffffff1660e01b8152600401610dbb929190611f4c565b6020604051808303815f875af1158015610dd7573d5f5f3e3d5ffd5b505050506040513d601f19601f82011682018060405250810190610dfb9190611fa8565b610e3a576040517f08c379a0000000000000000000000000000000000000000000000000000000008152600401610e3190612384565b60405180910390fd5b5b836003015f9054906101000a900473ffffffffffffffffffffffffffffffffffffffff1673ffffffffffffffffffffffffffffffffffffffff16857f7fa6259da351299dedaa57e3d04b083e99afe9ea2edffd0a7eb7509718f35eae8385604051610ea79291906123a2565b60405180910390a35050610f2b565b816003015f9054906101000a900473ffffffffffffffffffffffffffffffffffffffff1673ffffffffffffffffffffffffffffffffffffffff16837f7fa6259da351299dedaa57e3d04b083e99afe9ea2edffd0a7eb7509718f35eae5f5f604051610f22929190612402565b60405180910390a35b5050600160088190555050565b5f600260085403610f7e576040517f08c379a0000000000000000000000000000000000000000000000000000000008152600401610f7590611d96565b60405180910390fd5b60026008819055505f60045f9054906101000a900473ffffffffffffffffffffffffffffffffffffffff1673ffffffffffffffffffffffffffffffffffffffff1663e7572230846040518263ffffffff1660e01b8152600401610fe19190611c18565b602060405180830381865afa158015610ffc573d5f5f3e3d5ffd5b505050506040513d601f19601f82011682018060405250810190611020919061243d565b90505f60045f9054906101000a900473ffffffffffffffffffffffffffffffffffffffff1673ffffffffffffffffffffffffffffffffffffffff166339a93bb8856040518263ffffffff1660e01b815260040161107d9190611c18565b602060405180830381865afa158015611098573d5f5f3e3d5ffd5b505050506040513d601f19601f820116820180604052508101906110bc919061247c565b905060065f8154809291906110d0906124a7565b91905055505f60065490506040518060c001604052803373ffffffffffffffffffffffffffffffffffffffff1681526020018681526020018481526020018373ffffffffffffffffffffffffffffffffffffffff1681526020016001600481111561113e5761113d611ad2565b5b81526020014281525060075f8381526020019081526020015f205f820151815f015f6101000a81548173ffffffffffffffffffffffffffffffffffffffff021916908373ffffffffffffffffffffffffffffffffffffffff16021790555060208201518160010155604082015181600201556060820151816003015f6101000a81548173ffffffffffffffffffffffffffffffffffffffff021916908373ffffffffffffffffffffffffffffffffffffffff16021790555060808201518160030160146101000a81548160ff0219169083600481111561122157611220611ad2565b5b021790555060a082015181600401559050505f8311156113195760035f9054906101000a900473ffffffffffffffffffffffffffffffffffffffff1673ffffffffffffffffffffffffffffffffffffffff166323b872dd3330866040518463ffffffff1660e01b8152600401611299939291906124ee565b6020604051808303815f875af11580156112b5573d5f5f3e3d5ffd5b505050506040513d601f19601f820116820180604052508101906112d99190611fa8565b611318576040517f08c379a000000000000000000000000000000000000000000000000000000000815260040161130f90612593565b60405180910390fd5b5b843373ffffffffffffffffffffffffffffffffffffffff16827f22ea719e0db743d53a6d68955990153a80d7d6c97b9112728637bd29b2dcf763866040516113619190611c18565b60405180910390a48093505050506001600881905550919050565b60065481565b60025f9054906101000a900473ffffffffffffffffffffffffffffffffffffffff1681565b5f5f9054906101000a900473ffffffffffffffffffffffffffffffffffffffff1673ffffffffffffffffffffffffffffffffffffffff163373ffffffffffffffffffffffffffffffffffffffff1614611435576040517f08c379a000000000000000000000000000000000000000000000000000000000815260040161142c906125fb565b60405180910390fd5b6103e881111561147a576040517f08c379a000000000000000000000000000000000000000000000000000000000815260040161147190612663565b60405180910390fd5b8060058190555050565b60045f9054906101000a900473ffffffffffffffffffffffffffffffffffffffff1681565b5f60015f9054906101000a900473ffffffffffffffffffffffffffffffffffffffff1673ffffffffffffffffffffffffffffffffffffffff163373ffffffffffffffffffffffffffffffffffffffff1614611539576040517f08c379a00000000000000000000000000000000000000000000000000000000081526004016115309061217b565b60405180910390fd5b60026008540361157e576040517f08c379a000000000000000000000000000000000000000000000000000000000815260040161157590611d96565b60405180910390fd5b600260088190555060065f815480929190611598906124a7565b91905055505f60065490506040518060c001604052808773ffffffffffffffffffffffffffffffffffffffff1681526020018681526020018581526020018473ffffffffffffffffffffffffffffffffffffffff1681526020016001600481111561160657611605611ad2565b5b81526020014281525060075f8381526020019081526020015f205f820151815f015f6101000a81548173ffffffffffffffffffffffffffffffffffffffff021916908373ffffffffffffffffffffffffffffffffffffffff16021790555060208201518160010155604082015181600201556060820151816003015f6101000a81548173ffffffffffffffffffffffffffffffffffffffff021916908373ffffffffffffffffffffffffffffffffffffffff16021790555060808201518160030160146101000a81548160ff021916908360048111156116e9576116e8611ad2565b5b021790555060a08201518160040155905050848673ffffffffffffffffffffffffffffffffffffffff16827f22ea719e0db743d53a6d68955990153a80d7d6c97b9112728637bd29b2dcf763876040516117439190611c18565b60405180910390a4809150506001600881905550949350505050565b5f5f9054906101000a900473ffffffffffffffffffffffffffffffffffffffff1681565b5f5f9054906101000a900473ffffffffffffffffffffffffffffffffffffffff1673ffffffffffffffffffffffffffffffffffffffff163373ffffffffffffffffffffffffffffffffffffffff1614611811576040517f08c379a0000000000000000000000000000000000000000000000000000000008152600401611808906125fb565b60405180910390fd5b8060015f6101000a81548173ffffffffffffffffffffffffffffffffffffffff021916908373ffffffffffffffffffffffffffffffffffffffff16021790555050565b5f60075f8381526020019081526020015f2060030160149054906101000a900460ff169050919050565b60015f9054906101000a900473ffffffffffffffffffffffffffffffffffffffff1673ffffffffffffffffffffffffffffffffffffffff163373ffffffffffffffffffffffffffffffffffffffff161461190d576040517f08c379a00000000000000000000000000000000000000000000000000000000081526004016119049061217b565b60405180910390fd5b6001600481111561192157611920611ad2565b5b60075f8381526020019081526020015f2060030160149054906101000a900460ff16600481111561195557611954611ad2565b5b14611995576040517f08c379a000000000000000000000000000000000000000000000000000000000815260040161198c906126cb565b60405180910390fd5b600260075f8381526020019081526020015f2060030160146101000a81548160ff021916908360048111156119cd576119cc611ad2565b5b0217905550807f75a8523867c48ca7db28d86f271a6a404d3af97cbc92076bab2107dcb0a1bfd960405160405180910390a250565b6201518081565b5f73ffffffffffffffffffffffffffffffffffffffff82169050919050565b5f611a3282611a09565b9050919050565b611a4281611a28565b82525050565b5f602082019050611a5b5f830184611a39565b92915050565b5f5ffd5b5f819050919050565b611a7781611a65565b8114611a81575f5ffd5b50565b5f81359050611a9281611a6e565b92915050565b5f60208284031215611aad57611aac611a61565b5b5f611aba84828501611a84565b91505092915050565b611acc81611a65565b82525050565b7f4e487b71000000000000000000000000000000000000000000000000000000005f52602160045260245ffd5b60058110611b1057611b0f611ad2565b5b50565b5f819050611b2082611aff565b919050565b5f611b2f82611b13565b9050919050565b611b3f81611b25565b82525050565b5f60c082019050611b585f830189611a39565b611b656020830188611ac3565b611b726040830187611ac3565b611b7f6060830186611a39565b611b8c6080830185611b36565b611b9960a0830184611ac3565b979650505050505050565b5f819050919050565b5f611bc7611bc2611bbd84611a09565b611ba4565b611a09565b9050919050565b5f611bd882611bad565b9050919050565b5f611be982611bce565b9050919050565b611bf981611bdf565b82525050565b5f602082019050611c125f830184611bf0565b92915050565b5f602082019050611c2b5f830184611ac3565b92915050565b5f611c3b82611bce565b9050919050565b611c4b81611c31565b82525050565b5f602082019050611c645f830184611c42565b92915050565b611c7381611a28565b8114611c7d575f5ffd5b50565b5f81359050611c8e81611c6a565b92915050565b5f5f5f5f60808587031215611cac57611cab611a61565b5b5f611cb987828801611c80565b9450506020611cca87828801611a84565b9350506040611cdb87828801611a84565b9250506060611cec87828801611c80565b91505092959194509250565b5f60208284031215611d0d57611d0c611a61565b5b5f611d1a84828501611c80565b91505092915050565b5f602082019050611d365f830184611b36565b92915050565b5f82825260208201905092915050565b7f5265656e7472616e637947756172643a207265656e7472616e742063616c6c005f82015250565b5f611d80601f83611d3c565b9150611d8b82611d4c565b602082019050919050565b5f6020820190508181035f830152611dad81611d74565b9050919050565b7f4e6f7420796f75722072657175657374000000000000000000000000000000005f82015250565b5f611de8601083611d3c565b9150611df382611db4565b602082019050919050565b5f6020820190508181035f830152611e1581611ddc565b9050919050565b7f4e6f742050524f43455353494e470000000000000000000000000000000000005f82015250565b5f611e50600e83611d3c565b9150611e5b82611e1c565b602082019050919050565b5f6020820190508181035f830152611e7d81611e44565b9050919050565b7f4e487b71000000000000000000000000000000000000000000000000000000005f52601160045260245ffd5b5f611ebb82611a65565b9150611ec683611a65565b9250828201905080821115611ede57611edd611e84565b5b92915050565b7f54696d656f757420706572696f64206e6f7420726561636865640000000000005f82015250565b5f611f18601a83611d3c565b9150611f2382611ee4565b602082019050919050565b5f6020820190508181035f830152611f4581611f0c565b9050919050565b5f604082019050611f5f5f830185611a39565b611f6c6020830184611ac3565b9392505050565b5f8115159050919050565b611f8781611f73565b8114611f91575f5ffd5b50565b5f81519050611fa281611f7e565b92915050565b5f60208284031215611fbd57611fbc611a61565b5b5f611fca84828501611f94565b91505092915050565b7f466f72636520726566756e64206661696c6564000000000000000000000000005f82015250565b5f612007601383611d3c565b915061201282611fd3565b602082019050919050565b5f6020820190508181035f83015261203481611ffb565b9050919050565b7f43616e6e6f7420726566756e643a2050726f63657373696e67207374617274655f8201527f6400000000000000000000000000000000000000000000000000000000000000602082015250565b5f612095602183611d3c565b91506120a08261203b565b604082019050919050565b5f6020820190508181035f8301526120c281612089565b9050919050565b7f526566756e64207472616e73666572206661696c6564000000000000000000005f82015250565b5f6120fd601683611d3c565b9150612108826120c9565b602082019050919050565b5f6020820190508181035f83015261212a816120f1565b9050919050565b7f4f6e6c7920496e666572656e6365456e67696e650000000000000000000000005f82015250565b5f612165601483611d3c565b915061217082612131565b602082019050919050565b5f6020820190508181035f83015261219281612159565b9050919050565b7f52657175657374206e6f742050524f43455353494e47000000000000000000005f82015250565b5f6121cd601683611d3c565b91506121d882612199565b602082019050919050565b5f6020820190508181035f8301526121fa816121c1565b9050919050565b5f61220b82611a65565b915061221683611a65565b925082820261222481611a65565b9150828204841483151761223b5761223a611e84565b5b5092915050565b7f4e487b71000000000000000000000000000000000000000000000000000000005f52601260045260245ffd5b5f61227982611a65565b915061228483611a65565b92508261229457612293612242565b5b828204905092915050565b5f6122a982611a65565b91506122b483611a65565b92508282039050818111156122cc576122cb611e84565b5b92915050565b7f50726f746f636f6c20666565207472616e73666572206661696c6564000000005f82015250565b5f612306601c83611d3c565b9150612311826122d2565b602082019050919050565b5f6020820190508181035f830152612333816122fa565b9050919050565b7f4c616220666565207472616e73666572206661696c65640000000000000000005f82015250565b5f61236e601783611d3c565b91506123798261233a565b602082019050919050565b5f6020820190508181035f83015261239b81612362565b9050919050565b5f6040820190506123b55f830185611ac3565b6123c26020830184611ac3565b9392505050565b5f819050919050565b5f6123ec6123e76123e2846123c9565b611ba4565b611a65565b9050919050565b6123fc816123d2565b82525050565b5f6040820190506124155f8301856123f3565b61242260208301846123f3565b9392505050565b5f8151905061243781611a6e565b92915050565b5f6020828403121561245257612451611a61565b5b5f61245f84828501612429565b91505092915050565b5f8151905061247681611c6a565b92915050565b5f6020828403121561249157612490611a61565b5b5f61249e84828501612468565b91505092915050565b5f6124b182611a65565b91507fffffffffffffffffffffffffffffffffffffffffffffffffffffffffffffffff82036124e3576124e2611e84565b5b600182019050919050565b5f6060820190506125015f830186611a39565b61250e6020830185611a39565b61251b6040830184611ac3565b949350505050565b7f546f6b656e207472616e73666572206661696c65642e20436865636b20616c6c5f8201527f6f77616e63652e00000000000000000000000000000000000000000000000000602082015250565b5f61257d602783611d3c565b915061258882612523565b604082019050919050565b5f6020820190508181035f8301526125aa81612571565b9050919050565b7f4e6f74206f776e657200000000000000000000000000000000000000000000005f82015250565b5f6125e5600983611d3c565b91506125f0826125b1565b602082019050919050565b5f6020820190508181035f830152612612816125d9565b9050919050565b7f4665652063616e6e6f74206578636565642031302500000000000000000000005f82015250565b5f61264d601583611d3c565b915061265882612619565b602082019050919050565b5f6020820190508181035f83015261267a81612641565b9050919050565b7f52657175657374206e6f742050454e44494e47000000000000000000000000005f82015250565b5f6126b5601383611d3c565b91506126c082612681565b602082019050919050565b5f6020820190508181035f8301526126e2816126a9565b905091905056fea2646970667358221220fcb87e0c20859a877206e402105bd2beace722ca301d92774c8248a5660a27d664736f6c634300081c0033",
  "linkReferences": {},
  "deployedLinkReferences": {}
}