{
  "_format": "hh-sol-artifact-1",
  "contractName": "InferenceEngine",
  "sourceName": "contracts/InferenceEngine.sol",
  "abi": [
    {
      "inputs": [
        {
          "internalType": "address",
          "name": "registryAddress",
          "type": "address"
        },
        {
          "internalType": "address",
          "name": "escrowAddress",
          "type": "address"
        },
        {
          "internalType": "address",
          "name": "tokenAddress",
          "type": "address"
        }
      ],
      "stateMutability": "nonpayable",
      "type": "constructor"
    },
    {
      "inputs": [
        {
          "internalType": "uint8",
          "name": "got",
          "type": "uint8"
        },
        {
          "internalType": "uint8",
          "name": "expected",
          "type": "uint8"
        }
      ],
      "name": "InvalidEncryptedInput",
      "type": "error"
    },
    {
      "inputs": [
        {
          "internalType": "int32",
          "name": "value",
          "type": "int32"
        }
      ],
      "name": "SecurityZoneOutOfBounds",
      "type": "error"
    },
    {
      "anonymous": false,
      "inputs": [
        {
          "indexed": true,
          "internalType": "uint256",
          "name": "requestId",
          "type": "uint256"
        },
        {
          "indexed": true,
          "internalType": "address",
          "name": "requester",
          "type": "address"
        }
      ],
      "name": "InferenceCompleted",
      "type": "event"
    },
    {
      "inputs": [],
      "name": "MAX_WEIGHTS_PER_BLOCK",
      "outputs": [
        {
          "internalType": "uint256",
          "name": "",
          "type": "uint256"
        }
      ],
      "stateMutability": "view",
      "type": "function"
    },
    {
      "inputs": [],
      "name": "escrow",
      "outputs": [
        {
          "internalType": "contract IPaymentEscrow",
          "name": "",
          "type": "address"
        }
      ],
      "stateMutability": "view",
      "type": "function"
    },
    {
      "inputs": [
        {
          "internalType": "uint256",
          "name": "requestId",
          "type": "uint256"
        }
      ],
      "name": "getResult",
      "outputs": [
        {
          "internalType": "euint32",
          "name": "",
          "type": "bytes32"
        }
      ],
      "stateMutability": "view",
      "type": "function"
    },
    {
      "inputs": [],
      "name": "owner",
      "outputs": [
        {
          "internalType": "address",
          "name": "",
          "type": "address"
        }
      ],
      "stateMutability": "view",
      "type": "function"
    },
    {
      "inputs": [],
      "name": "paymentToken",
      "outputs": [
        {
          "internalType": "contract IERC20",
          "name": "",
          "type": "address"
        }
      ],
      "stateMutability": "view",
      "type": "function"
    },
    {
      "inputs": [
        {
          "internalType": "uint256",
          "name": "modelId",
          "type": "uint256"
        },
        {
          "components": [
            {
              "internalType": "uint256",
              "name": "ctHash",
              "type": "uint256"
            },
            {
              "internalType": "uint8",
              "name": "securityZone",
              "type": "uint8"
            },
            {
              "internalType": "uint8",
              "name": "utype",
              "type": "uint8"
            },
            {
              "internalType": "bytes",
              "name": "signature",
              "type": "bytes"
            }
          ],
          "internalType": "struct InEuint32[]",
          "name": "encryptedInputs",
          "type": "tuple[]"
        }
      ],
      "name": "predict",
      "outputs": [
        {
          "internalType": "uint256",
          "name": "",
          "type": "uint256"
        }
      ],
      "stateMutability": "nonpayable",
      "type": "function"
    },
    {
      "inputs": [],
      "name": "registry",
      "outputs": [
        {
          "internalType": "contract IModelRegistry",
          "name": "",
          "type": "address"
        }
      ],
      "stateMutability": "view",
      "type": "function"
    }
  ],
  "bytecode": "0x608060405234801561000f575f5ffd5b506040516123983803806123988339818101604052810190610031919061019e565b335f5f6101000a81548173ffffffffffffffffffffffffffffffffffffffff021916908373ffffffffffffffffffffffffffffffffffffffff1602179055508260015f6101000a81548173ffffffffffffffffffffffffffffffffffffffff021916908373ffffffffffffffffffffffffffffffffffffffff1602179055508160025f6101000a81548173ffffffffffffffffffffffffffffffffffffffff021916908373ffffffffffffffffffffffffffffffffffffffff1602179055508060035f6101000a81548173ffffffffffffffffffffffffffffffffffffffff021916908373ffffffffffffffffffffffffffffffffffffffff16021790555060016004819055505050506101ee565b5f5ffd5b5f73ffffffffffffffffffffffffffffffffffffffff82169050919050565b5f61016d82610144565b9050919050565b61017d81610163565b8114610187575f5ffd5b50565b5f8151905061019881610174565b92915050565b5f5f5f606084860312156101b5576101b4610140565b5b5f6101c28682870161018a565b93505060206101d38682870161018a565b92505060406101e48682870161018a565b9150509250925092565b61219d806101fb5f395ff3fe608060405234801561000f575f5ffd5b506004361061007b575f3560e01c80638da5cb5b116100595780638da5cb5b146100eb5780638fce9fb314610109578063995e433914610127578063e2fdcc17146101575761007b565b80633013ce291461007f578063305050811461009d5780637b103999146100cd575b5f5ffd5b610087610175565b60405161009491906112ad565b60405180910390f35b6100b760048036038101906100b2919061136b565b61019a565b6040516100c491906113d7565b60405180910390f35b6100d5610204565b6040516100e29190611410565b60405180910390f35b6100f3610229565b6040516101009190611449565b60405180910390f35b61011161024d565b60405161011e91906113d7565b60405180910390f35b610141600480360381019061013c9190611462565b610252565b60405161014e91906114b6565b60405180910390f35b61015f6103d5565b60405161016c91906114ef565b60405180910390f35b60035f9054906101000a900473ffffffffffffffffffffffffffffffffffffffff1681565b5f6002600454036101e0576040517f08c379a00000000000000000000000000000000000000000000000000000000081526004016101d790611562565b60405180910390fd5b60026004819055506101f38484846103fa565b905060016004819055509392505050565b60015f9054906101000a900473ffffffffffffffffffffffffffffffffffffffff1681565b5f5f9054906101000a900473ffffffffffffffffffffffffffffffffffffffff1681565b600f81565b5f5f60025f9054906101000a900473ffffffffffffffffffffffffffffffffffffffff1673ffffffffffffffffffffffffffffffffffffffff1663012f52ee846040518263ffffffff1660e01b81526004016102ae91906113d7565b60c060405180830381865afa1580156102c9573d5f5f3e3d5ffd5b505050506040513d601f19601f820116820180604052508101906102ed91906115f4565b505050505090508073ffffffffffffffffffffffffffffffffffffffff163373ffffffffffffffffffffffffffffffffffffffff1614610362576040517f08c379a0000000000000000000000000000000000000000000000000000000008152600401610359906116ed565b60405180910390fd5b61037c60055f8581526020019081526020015f2054610874565b6103bb576040517f08c379a00000000000000000000000000000000000000000000000000000000081526004016103b290611755565b60405180910390fd5b60055f8481526020019081526020015f2054915050919050565b60025f9054906101000a900473ffffffffffffffffffffffffffffffffffffffff1681565b5f5f60015f9054906101000a900473ffffffffffffffffffffffffffffffffffffffff1673ffffffffffffffffffffffffffffffffffffffff1663f63d510d866040518263ffffffff1660e01b815260040161045691906113d7565b602060405180830381865afa158015610471573d5f5f3e3d5ffd5b505050506040513d601f19601f820116820180604052508101906104959190611773565b90505f60015f9054906101000a900473ffffffffffffffffffffffffffffffffffffffff1673ffffffffffffffffffffffffffffffffffffffff166339a93bb8876040518263ffffffff1660e01b81526004016104f291906113d7565b602060405180830381865afa15801561050d573d5f5f3e3d5ffd5b505050506040513d601f19601f82011682018060405250810190610531919061179e565b90505f82111561063a5760035f9054906101000a900473ffffffffffffffffffffffffffffffffffffffff1673ffffffffffffffffffffffffffffffffffffffff166323b872dd3360025f9054906101000a900473ffffffffffffffffffffffffffffffffffffffff16856040518463ffffffff1660e01b81526004016105ba939291906117c9565b6020604051808303815f875af11580156105d6573d5f5f3e3d5ffd5b505050506040513d601f19601f820116820180604052508101906105fa9190611833565b610639576040517f08c379a0000000000000000000000000000000000000000000000000000000008152600401610630906118ce565b60405180910390fd5b5b5f60025f9054906101000a900473ffffffffffffffffffffffffffffffffffffffff1673ffffffffffffffffffffffffffffffffffffffff1663816eba6b338986866040518563ffffffff1660e01b815260040161069b94939291906118ec565b6020604051808303815f875af11580156106b7573d5f5f3e3d5ffd5b505050506040513d601f19601f820116820180604052508101906106db9190611773565b905060025f9054906101000a900473ffffffffffffffffffffffffffffffffffffffff1673ffffffffffffffffffffffffffffffffffffffff1663e89ec448826040518263ffffffff1660e01b815260040161073791906113d7565b5f604051808303815f87803b15801561074e575f5ffd5b505af1158015610760573d5f5f3e3d5ffd5b505050505f610770888888610885565b905061077b81610b36565b6107858133610bb7565b8060055f8481526020019081526020015f208190555060025f9054906101000a900473ffffffffffffffffffffffffffffffffffffffff1673ffffffffffffffffffffffffffffffffffffffff166337bdc99b836040518263ffffffff1660e01b81526004016107f591906113d7565b5f604051808303815f87803b15801561080c575f5ffd5b505af115801561081e573d5f5f3e3d5ffd5b505050503373ffffffffffffffffffffffffffffffffffffffff16827f9a75044dc02b52d82cd403d41728daf22d51454f91edb9449300dab670bb29c660405160405180910390a3819450505050509392505050565b5f61087e82610c39565b9050919050565b5f5f60015f9054906101000a900473ffffffffffffffffffffffffffffffffffffffff1673ffffffffffffffffffffffffffffffffffffffff1663bd740118866040518263ffffffff1660e01b81526004016108e191906113d7565b5f60405180830381865afa1580156108fb573d5f5f3e3d5ffd5b505050506040513d5f823e3d601f19601f820116820180604052508101906109239190611aa1565b90505f60015f9054906101000a900473ffffffffffffffffffffffffffffffffffffffff1673ffffffffffffffffffffffffffffffffffffffff1663b911cb09876040518263ffffffff1660e01b815260040161098091906113d7565b602060405180830381865afa15801561099b573d5f5f3e3d5ffd5b505050506040513d601f19601f820116820180604052508101906109bf9190611ae8565b90505f825111610a04576040517f08c379a00000000000000000000000000000000000000000000000000000000081526004016109fb90611b5d565b60405180910390fd5b600f82511115610a49576040517f08c379a0000000000000000000000000000000000000000000000000000000008152600401610a4090611beb565b60405180910390fd5b84849050825114610a8f576040517f08c379a0000000000000000000000000000000000000000000000000000000008152600401610a8690611c79565b60405180910390fd5b5f610a995f610c4a565b90505f5f90505b8351811015610b1f575f610ae0888884818110610ac057610abf611c97565b5b9050602002810190610ad29190611cc8565b610adb90611e4c565b610c5c565b9050610b0f83610b0a83888681518110610afd57610afc611c97565b5b6020026020010151610c84565b610ccd565b9250508080600101915050610aa0565b50610b2a8183610ccd565b93505050509392505050565b73ea30c4b8b44078bbf8a6ef5b9f1ec1626c7848d973ffffffffffffffffffffffffffffffffffffffff166365d0509c825f1c306040518363ffffffff1660e01b8152600401610b87929190611e5e565b5f604051808303815f87803b158015610b9e575f5ffd5b505af1158015610bb0573d5f5f3e3d5ffd5b5050505050565b73ea30c4b8b44078bbf8a6ef5b9f1ec1626c7848d973ffffffffffffffffffffffffffffffffffffffff166365d0509c835f1c836040518363ffffffff1660e01b8152600401610c08929190611e5e565b5f604051808303815f87803b158015610c1f575f5ffd5b505af1158015610c31573d5f5f3e3d5ffd5b505050505050565b5f610c4382610d16565b9050919050565b5f610c55825f610d24565b9050919050565b5f610c6c82604001516004610d3e565b610c7d610c7883610d8e565b610dd0565b9050919050565b5f610c8e83610c39565b610c9e57610c9b5f610c4a565b92505b610ca782610c39565b610cb757610cb45f610c4a565b91505b610cc560048484600f610e69565b905092915050565b5f610cd783610c39565b610ce757610ce45f610c4a565b92505b610cf082610c39565b610d0057610cfd5f610c4a565b91505b610d0e600484846008610e69565b905092915050565b5f5f5f1b8214159050919050565b5f5f610d3284600485610f5a565b90508091505092915050565b8060ff168260ff1614610d8a5781816040517f67cf3071000000000000000000000000000000000000000000000000000000008152600401610d81929190611e94565b60405180910390fd5b5050565b610d96611208565b6040518060800160405280835f01518152602001836020015160ff168152602001600460ff16815260200183606001518152509050919050565b5f73ea30c4b8b44078bbf8a6ef5b9f1ec1626c7848d973ffffffffffffffffffffffffffffffffffffffff166327f9c76283336040518363ffffffff1660e01b8152600401610e20929190611f99565b6020604051808303815f875af1158015610e3c573d5f5f3e3d5ffd5b505050506040513d601f19601f82011682018060405250810190610e609190611773565b5f1b9050919050565b5f73ea30c4b8b44078bbf8a6ef5b9f1ec1626c7848d973ffffffffffffffffffffffffffffffffffffffff16631888debd8684610ea68888611057565b5f67ffffffffffffffff811115610ec057610ebf61193f565b5b604051908082528060200260200182016040528015610eee5781602001602082028036833780820191505090505b506040518563ffffffff1660e01b8152600401610f0e94939291906120e2565b6020604051808303815f875af1158015610f2a573d5f5f3e3d5ffd5b505050506040513d601f19601f82011682018060405250810190610f4e9190611773565b5f1b9050949350505050565b5f73ea30c4b8b44078bbf8a6ef5b9f1ec1626c7848d973ffffffffffffffffffffffffffffffffffffffff16631888debd84601a5f67ffffffffffffffff811115610fa857610fa761193f565b5b604051908082528060200260200182016040528015610fd65781602001602082028036833780820191505090505b50610fed898960ff16610fe88a6110f5565b61114c565b6040518563ffffffff1660e01b815260040161100c94939291906120e2565b6020604051808303815f875af1158015611028573d5f5f3e3d5ffd5b505050506040513d601f19601f8201168201806040525081019061104c9190611773565b5f1b90509392505050565b60605f600267ffffffffffffffff8111156110755761107461193f565b5b6040519080825280602002602001820160405280156110a35781602001602082028036833780820191505090505b509050835f1c815f815181106110bc576110bb611c97565b5b602002602001018181525050825f1c816001815181106110df576110de611c97565b5b6020026020010181815250508091505092915050565b5f5f8260030b121561113e57816040517f8f568bf8000000000000000000000000000000000000000000000000000000008152600401611135919061214e565b60405180910390fd5b8163ffffffff169050919050565b60605f600367ffffffffffffffff81111561116a5761116961193f565b5b6040519080825280602002602001820160405280156111985781602001602082028036833780820191505090505b50905084815f815181106111af576111ae611c97565b5b60200260200101818152505083816001815181106111d0576111cf611c97565b5b60200260200101818152505082816002815181106111f1576111f0611c97565b5b602002602001018181525050809150509392505050565b60405180608001604052805f81526020015f60ff1681526020015f60ff168152602001606081525090565b5f73ffffffffffffffffffffffffffffffffffffffff82169050919050565b5f819050919050565b5f61127561127061126b84611233565b611252565b611233565b9050919050565b5f6112868261125b565b9050919050565b5f6112978261127c565b9050919050565b6112a78161128d565b82525050565b5f6020820190506112c05f83018461129e565b92915050565b5f604051905090565b5f5ffd5b5f5ffd5b5f819050919050565b6112e9816112d7565b81146112f3575f5ffd5b50565b5f81359050611304816112e0565b92915050565b5f5ffd5b5f5ffd5b5f5ffd5b5f5f83601f84011261132b5761132a61130a565b5b8235905067ffffffffffffffff8111156113485761134761130e565b5b60208301915083602082028301111561136457611363611312565b5b9250929050565b5f5f5f60408486031215611382576113816112cf565b5b5f61138f868287016112f6565b935050602084013567ffffffffffffffff8111156113b0576113af6112d3565b5b6113bc86828701611316565b92509250509250925092565b6113d1816112d7565b82525050565b5f6020820190506113ea5f8301846113c8565b92915050565b5f6113fa8261127c565b9050919050565b61140a816113f0565b82525050565b5f6020820190506114235f830184611401565b92915050565b5f61143382611233565b9050919050565b61144381611429565b82525050565b5f60208201905061145c5f83018461143a565b92915050565b5f60208284031215611477576114766112cf565b5b5f611484848285016112f6565b91505092915050565b5f819050919050565b5f6114a08261148d565b9050919050565b6114b081611496565b82525050565b5f6020820190506114c95f8301846114a7565b92915050565b5f6114d98261127c565b9050919050565b6114e9816114cf565b82525050565b5f6020820190506115025f8301846114e0565b92915050565b5f82825260208201905092915050565b7f5265656e7472616e637947756172643a207265656e7472616e742063616c6c005f82015250565b5f61154c601f83611508565b915061155782611518565b602082019050919050565b5f6020820190508181035f83015261157981611540565b9050919050565b61158981611429565b8114611593575f5ffd5b50565b5f815190506115a481611580565b92915050565b5f815190506115b8816112e0565b92915050565b5f60ff82169050919050565b6115d3816115be565b81146115dd575f5ffd5b50565b5f815190506115ee816115ca565b92915050565b5f5f5f5f5f5f60c0878903121561160e5761160d6112cf565b5b5f61161b89828a01611596565b965050602061162c89828a016115aa565b955050604061163d89828a016115aa565b945050606061164e89828a01611596565b935050608061165f89828a016115e0565b92505060a061167089828a016115aa565b9150509295509295509295565b7f4e6f7420617574686f72697a656420746f2076696577207468697320726573755f8201527f6c74000000000000000000000000000000000000000000000000000000000000602082015250565b5f6116d7602283611508565b91506116e28261167d565b604082019050919050565b5f6020820190508181035f830152611704816116cb565b9050919050565b7f526573756c74206e6f74207265616479206f72206661696c65640000000000005f82015250565b5f61173f601a83611508565b915061174a8261170b565b602082019050919050565b5f6020820190508181035f83015261176c81611733565b9050919050565b5f60208284031215611788576117876112cf565b5b5f611795848285016115aa565b91505092915050565b5f602082840312156117b3576117b26112cf565b5b5f6117c084828501611596565b91505092915050565b5f6060820190506117dc5f83018661143a565b6117e9602083018561143a565b6117f660408301846113c8565b949350505050565b5f8115159050919050565b611812816117fe565b811461181c575f5ffd5b50565b5f8151905061182d81611809565b92915050565b5f60208284031215611848576118476112cf565b5b5f6118558482850161181f565b91505092915050565b7f546f6b656e207472616e73666572206661696c65642e20436865636b20616c6c5f8201527f6f77616e63652e00000000000000000000000000000000000000000000000000602082015250565b5f6118b8602783611508565b91506118c38261185e565b604082019050919050565b5f6020820190508181035f8301526118e5816118ac565b9050919050565b5f6080820190506118ff5f83018761143a565b61190c60208301866113c8565b61191960408301856113c8565b611926606083018461143a565b95945050505050565b5f601f19601f8301169050919050565b7f4e487b71000000000000000000000000000000000000000000000000000000005f52604160045260245ffd5b6119758261192f565b810181811067ffffffffffffffff821117156119945761199361193f565b5b80604052505050565b5f6119a66112c6565b90506119b2828261196c565b919050565b5f67ffffffffffffffff8211156119d1576119d061193f565b5b602082029050602081019050919050565b6119eb8161148d565b81146119f5575f5ffd5b50565b5f81519050611a06816119e2565b92915050565b5f611a1e611a19846119b7565b61199d565b90508083825260208201905060208402830185811115611a4157611a40611312565b5b835b81811015611a6a5780611a5688826119f8565b845260208401935050602081019050611a43565b5050509392505050565b5f82601f830112611a8857611a8761130a565b5b8151611a98848260208601611a0c565b91505092915050565b5f60208284031215611ab657611ab56112cf565b5b5f82015167ffffffffffffffff811115611ad357611ad26112d3565b5b611adf84828501611a74565b91505092915050565b5f60208284031215611afd57611afc6112cf565b5b5f611b0a848285016119f8565b91505092915050565b7f4d6f64656c20686173206e6f20776569676874730000000000000000000000005f82015250565b5f611b47601483611508565b9150611b5282611b13565b602082019050919050565b5f6020820190508181035f830152611b7481611b3b565b9050919050565b7f4d6f64656c20657863656564732046484520626c6f636b20676173206c696d695f8201527f7400000000000000000000000000000000000000000000000000000000000000602082015250565b5f611bd5602183611508565b9150611be082611b7b565b604082019050919050565b5f6020820190508181035f830152611c0281611bc9565b9050919050565b7f496e70757420616e64205765696768742064696d656e73696f6e206d69736d615f8201527f7463680000000000000000000000000000000000000000000000000000000000602082015250565b5f611c63602383611508565b9150611c6e82611c09565b604082019050919050565b5f6020820190508181035f830152611c9081611c57565b9050919050565b7f4e487b71000000000000000000000000000000000000000000000000000000005f52603260045260245ffd5b5f5ffd5b5f82356001608003833603038112611ce357611ce2611cc4565b5b80830191505092915050565b5f5ffd5b5f5ffd5b5f81359050611d05816115ca565b92915050565b5f5ffd5b5f67ffffffffffffffff821115611d2957611d2861193f565b5b611d328261192f565b9050602081019050919050565b828183375f83830152505050565b5f611d5f611d5a84611d0f565b61199d565b905082815260208101848484011115611d7b57611d7a611d0b565b5b611d86848285611d3f565b509392505050565b5f82601f830112611da257611da161130a565b5b8135611db2848260208601611d4d565b91505092915050565b5f60808284031215611dd057611dcf611cef565b5b611dda608061199d565b90505f611de9848285016112f6565b5f830152506020611dfc84828501611cf7565b6020830152506040611e1084828501611cf7565b604083015250606082013567ffffffffffffffff811115611e3457611e33611cf3565b5b611e4084828501611d8e565b60608301525092915050565b5f611e573683611dbb565b9050919050565b5f604082019050611e715f8301856113c8565b611e7e602083018461143a565b9392505050565b611e8e816115be565b82525050565b5f604082019050611ea75f830185611e85565b611eb46020830184611e85565b9392505050565b611ec4816112d7565b82525050565b611ed3816115be565b82525050565b5f81519050919050565b5f82825260208201905092915050565b8281835e5f83830152505050565b5f611f0b82611ed9565b611f158185611ee3565b9350611f25818560208601611ef3565b611f2e8161192f565b840191505092915050565b5f608083015f830151611f4e5f860182611ebb565b506020830151611f616020860182611eca565b506040830151611f746040860182611eca565b5060608301518482036060860152611f8c8282611f01565b9150508091505092915050565b5f6040820190508181035f830152611fb18185611f39565b9050611fc0602083018461143a565b9392505050565b7f4e487b71000000000000000000000000000000000000000000000000000000005f52602160045260245ffd5b6020811061200557612004611fc7565b5b50565b5f81905061201582611ff4565b919050565b5f61202482612008565b9050919050565b6120348161201a565b82525050565b5f81519050919050565b5f82825260208201905092915050565b5f819050602082019050919050565b5f61206e8383611ebb565b60208301905092915050565b5f602082019050919050565b5f6120908261203a565b61209a8185612044565b93506120a583612054565b805f5b838110156120d55781516120bc8882612063565b97506120c78361207a565b9250506001810190506120a8565b5085935050505092915050565b5f6080820190506120f55f830187611e85565b612102602083018661202b565b81810360408301526121148185612086565b905081810360608301526121288184612086565b905095945050505050565b5f8160030b9050919050565b61214881612133565b82525050565b5f6020820190506121615f83018461213f565b9291505056fea2646970667358221220a1e1f31695912a89ded503f361be57cddd5257ee63b9d84760b07901d3fbbeaa64736f6c634300081c0033",
  "linkReferences": {},
  "deployedLinkReferences": {}
}